:020000040800F2
:10000000B809002065020008C12B0008B9220008C9
:10001000A52900085D040008413300080000000025
:100020000000000000000000000000007D3000081B
:1000300061040008000000007930000881300008E9
:100040007F0200087F0200087F0200087F0200088C
:100050007F0200087F0200087F0200087F0200087C
:100060007F0200087F0200087F0200087F0200086C
:100070007F0200087F0200087F0200087F0200085C
:100080007F0200087F0200087F02000800000000D5
:100090000000000000000000000000007F020008D7
:1000A0007F0200083D3100087F0200087F0200083F
:1000B000493100087F02000855310008BD220008C0
:1000C0007F0200087F0200087F0200087F0200080C
:1000D0007F0200087F0200087F0200080000000085
:1000E0007F0200087F0200087F0200080000000075
:1000F0000000000000000000000000007F02000877
:10010000000000007F0200087F0200087F02000854
:1001100000000000000000000000000000000000DF
:100120007F0200087F0200087F0200087F020008AB
:100130007F02000800000000000000000000000036
:100140000000000000000000000000007F02000826
:100150007F0200087F0200087F0200087F0200087B
:100160007F0200087F02000800000000000000007D
:10017000000000000000000000000000000000007F
:10018000000000007F0200080000000000000000E6
:100190007F0200087F02000800F002F800F052F829
:1001A00014A696E8000CB244B344DA4501D100F03D
:1001B00049F8BAE80F000FA696E83000A5EB040551
:1001C00004EB0607AAEB0704A7F101074FEA151590
:1001D0004FEA3414A4F10104AC4201D300F032F828
:1001E00013F0010F18BFFB1A43F0010300F001F8F0
:1001F000DBE718476C4100008C410000103A24BF37
:1002000078C878C1FAD8520724BF30C830C144BF7B
:1002100004680C6070470000704700000023002451
:1002200000250026103A28BF78C1FBD8520728BF06
:1002300030C148BF0B6070471FB504F078F81FBD90
:1002400010B510BD00F0D0F81146FFF7F5FF03F030
:100250007BF800F0EEF803B4FFF7F2FF03BC00F008
:10026000F5F800000948804709480047FEE7FEE727
:10027000FEE7FEE7FEE7FEE7FEE7FEE7FEE7FEE756
:1002800004480549054A064B70470000293100081B
:1002900099010008B8030020B8090020B805002023
:1002A000B805002053EA020C00F069802DE9F04BFC
:1002B0004FF00006002B1FBFB3FA83F503FA05F4D5
:1002C00024FA05F65E4012BF1643B2FA82F502FA2E
:1002D00005F4C5F120051EBF22FA05FC44EA0C0412
:1002E000203556EA044C4FEA144418BF641C4FF002
:1002F00000084FF00009904271EB030C39D300293C
:1003000019BFB1FA81F701FA07F6B0FA80F700FADF
:1003100007F6C7F120071EBF20FA07FC46EA0C06C5
:100320002037B6FBF4FCA7EB0507103F07F01F0BC7
:10033000CBF120062CFA06F60CFA0BFB44BFB346B1
:100340000026202FA4BF5E464FF0000B5BEA060C90
:1003500008BF4FF0010B19EB0B0948EB0608ABFB8C
:10036000027C06FB02CC0BFB03CCC01B71EB0C0127
:10037000C1E70B46024641464846BDE8F08B13B53F
:10038000084318BF4FF0FF300146AFF30080BDE8CF
:100390001C4070474FF0000200B513469446964645
:1003A000203922BFA0E80C50A0E80C50B1F1200188
:1003B000BFF4F7AF090728BFA0E80C5048BF0CC036
:1003C0005DF804EB890028BF40F8042B08BF704794
:1003D00048BF20F8022B11F0804F18BF00F8012B06
:1003E0007047704770477047754600F02BF8AE466F
:1003F00005006946534620F00700854618B020B531
:10040000FFF73EFFBDE820404FF000064FF0000729
:100410004FF000084FF0000BAC46ACE8C009ACE868
:10042000C009ACE8C009ACE8C00921F007018D465D
:10043000704710B50446AFF300802046BDE8104079
:10044000FFF709BF00487047180000200149182035
:10045000ABBEFEE72600020070470000FEE700008A
:100460007047000090F83510022909D1052180F865
:1004700035100068016821F001010160002070471B
:10048000802141650120704790F8350070470000D9
:100490002DE9F04F83B000F1200200F13E4741F218
:1004A0000005009207F1FF77C4F2020507224FEA28
:1004B000B726A84208BF042200254FF000084FF0DD
:1004C0000009042E38BF4FEAB72201920AE000BFAC
:1004D00009F1010908F10208B9F1100F05F104054D
:1004E00000F0A2800F68012202FA09FE17EA0E0A44
:1004F000EED0D1F804C003220CF003077E1E02FAEE
:1005000008F4012E6FEA040B12D88468CE6804EA5E
:100510000B0406FA08F634438460446824EA0E06A5
:10052000CCF3001404FA09F42643466004E000BF4B
:10053000032F01D103271EE0C6688C6806EA0B066C
:1005400004FA08F42643022FC66014D16FF00302A8
:10055000009E02EA590756F807C005F01C040F2256
:100560000B69A2402CEA0202A3401A43F251D1F8CF
:1005700004C00CF00307026807FA08F302EA0B0252
:100580001A431CF4403F0260A2D0002243F6440309
:100590000292C4F202031A6843F6004442F4804215
:1005A0001A601A68C4F2010402F480420292029AAC
:1005B00029F003024FF6084C2244CFF6FF7C52F894
:1005C0000C3005F00C070F26BE40B343019E06FA1F
:1005D00007F73B4342F80C30A2684B6842EA0A072F
:1005E00043F60C4CDE0258BF22EA0A07A760C4F2A9
:1005F000010CDCF800209E0242EA0A0758BF22EAFA
:100600000A07CCF8007062689E0342EA0A0758BFE6
:1006100022EA0A0767602268DB0342EA0A0758BF3A
:1006200022EA0A07276053E703B0BDE8F08F000015
:10063000002A08BF090481617047000040F2B4300D
:10064000C2F2000000687047704700007047000069
:10065000F0B581B007687968C26A90F83E5090F8AA
:100660003DE0402D01D0102D34D1BB697C69E607F7
:1006700018D1B2F12A4F00F06B82B2F52A0F00F0C8
:100680006782220701F4007240F10681002A00F01F
:100690000381416B426C0029D2B23A6140F0B080D4
:1006A000B0E000BF8A0543D44FF0010C7A685B07C5
:1006B0006ED4120500F14C8204F04402402A40F04E
:1006C000598111F4806100F0558101B0BDE8F0401E
:1006D00001F0CCBF026C01F40073002A0CBFBC69AE
:1006E00000247D69AA0729D543B3016C002918BFEE
:1006F000BC6990F83D1001F02801282940F0C08025
:100700007968012221F48061796004F0040182EAB1
:10071000910122064FF0180258BF0C22825A002382
:1007200080F83C3001B0BDE8F040FFF78FBF00BF5C
:10073000C16AB1F52A0F3DD1012140E0EA066FD52B
:10074000002B6DD090F83D50796821F4E06179601C
:100750000021009179690091396841F00101396007
:100760000099396821F4806139607968090540F1A0
:100770007D8105F0F7010446222940F04D8154F8AF
:10078000381F0A68526824F80E2C34F80E2C4BE1FE
:10079000120500F1DD8104F08402802A40F0FA8025
:1007A00011F4806100F0F68001B0BDE8F04002F085
:1007B0003FB800BFC16AB1F12A4F01D10821C1621F
:1007C00090F83E1040290BD1016D406C002900F0DB
:1007D000FE0018BF40F00100386101B0F0BD00BF5D
:1007E0000169B1F5804F40F0898090F83D10426C6E
:1007F000212902F0FE0218BF01323A61416B09B1B2
:10080000C96B39B9806B002800F0A281C06B002849
:1008100000F09E81786840F40060786001B0F0BD1F
:100820000EF0F702212A79D105F08402802A40F0E7
:10083000C58011F4806100F0C18090F83D10428DB8
:10084000002A00F08581426A12F8013B3B61426256
:10085000428D013A4285428D002A08BF292940F085
:100860007781796821F480617960212101632821F1
:1008700080F83D1001B0BDE8F04000F0EFBA00BFD5
:10088000002100917A690092BA690092009A80F87A
:100890003C1001B0F0BD00BF4FF0010CA6078CEA80
:1008A000522C7FF503AF002A3FF400AF90F83E20B2
:1008B000C16A036B90F83D60222E40F0A380066D64
:1008C000002E08BF402A00F09D80026D002A40F0F3
:1008D00041810269B2F5404F40F03C810021009116
:1008E00079690091B96900910099396841F4807182
:1008F0003960016D0131016501B0F0BD016D002964
:1009000000F00481016D012940F02281406C062134
:1009100001EAD010F130386101B0F0BD05F04402B9
:10092000402A5BD111F4806158D090F83D10428D7F
:10093000002A00F00D813A69436A1A70426A013256
:100940004262428D013A4285428D002A08BF2A291F
:1009500040F0FE8001684A6822F480624A602221E9
:100960000163282180F83D1001B0BDE8F04000F09F
:1009700073BA00BF04F00401012282EA910141EA46
:100980000C01C90740F0E48001B0BDE8F04001F07F
:10099000F1BD00BF04F00401012282EA910141EAA5
:1009A0000C01C90740F0D480BEF1210F40F0C8808F
:1009B00001B0BDE8F04001F0F9BE00BF690740F1A9
:1009C000C780002B00F0C480418D002900F0C0805A
:1009D000416A11F8012B3A610FE000BF690740F14D
:1009E000B780002B00F0B480418D002900F0B0806A
:1009F0003969426A1170416A01314162418D0139A0
:100A00004185A5E00020009078690090B8690090C9
:100A1000009801B0F0BD00BF54F8341F0A68526856
:100A200024F80A2C34F80A2C1AB1026C42F00402A1
:100A300002647A68064622F4006208467A60FFF78C
:100A400023FD01463046012910D0206842F2C92119
:100A5000C0F600010165FFF705FD0146304629B1EA
:100A6000216804460A6D084690472046418D61B1D1
:100A700001684A6952072FD44A69520639D4418D18
:100A800019B1016C41F004010164016C21B101B0A4
:100A9000BDE8F04001F0A8BC2A2D08D10021016377
:100AA000282180F83D10044600F0D6F9204690F841
:100AB0003D10282932D10021CFF6FF71C1620021FB
:100AC0002022016380F83D2080F83E1001B0BDE88F
:100AD000F04000F073B900BF0969426A1170426AC0
:100AE000016801324262428D013A42854A695206EA
:100AF000C5D50969426A1170416A01314162418D6F
:100B000001394185418D0029BBD1BEE7406C0621EA
:100B100001EAD010F030386101B0F0BD016B22293C
:100B200018BF222D14D100212022016380F83D201E
:100B300080F83E1001B0BDE8F04000F08DB900BF74
:100B4000402D05D101B0BDE8F04001F0CBBE00BFA3
:100B500001B0F0BD428D52B1428D012A16D120293B
:100B600018BF082926D1396821F480613960002135
:100B7000009179690091B96900910099396841F44F
:100B8000007139600021016501B0F0BD428D022A7B
:100B90000CD1102932D8012214238A40C0F201035B
:100BA0001A422BD04FF480622EE000BF3A6842F424
:100BB00080622BE011F5803F0CD1396821F480610F
:100BC000396079680905D2D5396821F480613960C6
:100BD00030E000BF122B01D10129C4D11029F3D874
:100BE000012202FA01F11422C0F201021142EBD0FB
:100BF000396841F4806139601CE000BF3A6822F432
:100C000080623A604FF400623B681A433A607A6847
:100C100012050FD54A1E1F2A18D8012303FA02F223
:100C200048F28103C8F200031A420FD0796841F4F8
:100C3000805179600021009179690091B969009132
:100C400000990021016501B0F0BD00BF11F5803FA2
:100C5000ECD0EFE770470000002804BF0120704788
:100C6000F0B581B0044690F83D0028B9002084F822
:100C70003C00204600F0ACF8242084F83D002068B9
:100C8000016821F001010160016841F40041016047
:100C9000016821F40041016000F04CFA636848F2F9
:100CA000A16CC0F2010C40F60011C0F23D01634599
:100CB0003CBF48F28041C0F21E01884202D20120AE
:100CC00001B0F0BD4DF68361C4F21B31A0FB0112EF
:100CD0002168970CD1F804E04FF496762EF03F058A
:100CE00045EA92454D60774348F638160D6AC0F2E2
:100CF0004106A7FB067625F03F07634538BF960CF3
:100D0000721C3A430A62CA6948F2A0664CF6FF7741
:100D1000C0F20106B34222EA07020BD801385B0099
:100D2000B0FBF3F001306FF31F30042898BF0420AC
:100D30001BE000BFA768013857B119277B43B0FB00
:100D4000F3F001306FF31F3070B100F5804007E021
:100D500003EB4303B0FBF3F001306FF31F3018B126
:100D600000F5004001E000BF01201043C8610868A1
:100D7000D4E9072320F0C0001043184308608868B6
:100D800048F2FF3204F10C0790438CCF1843104314
:100D9000A6698860C86820F0FF0038433043C86007
:100DA000086840F00100086000202021206484F8D9
:100DB0003D10206384F83E0001B0F0BD7047000094
:100DC0007047000070470000704700007047000047
:100DD000B0B586B045F200410068C4F200010024BD
:100DE00088420594CDE903440294019402D006B0F0
:100DF000B0BD00BF43F630050094C4F20205286878
:100E000040F002002860286800F00200009000987E
:100E10004FF4407001901220CDE9020403200490A9
:100E20000420059001F5D83001A9FFF731FB0094AB
:100E30002869002140F4001028612869002200F48C
:100E40000010009000981F2000F086F81F2000F08E
:100E500071F806B0B0BD0000704700007047000098
:100E600040F2080040F2B431C2F20000C2F20001C8
:100E700000780A68104408607047000080B543F6A7
:100E80000040C4F20200016841F400710160016891
:100E900041F480610160016841F4807101600320C8
:100EA00000F086F80F2000F005F800F027F8002089
:100EB00080BD000070B540F20806C2F2000640F2A4
:100EC00010013278C2F200014FF47A730968B3FB63
:100ED000F2F20446B1FBF2F1084600F061FB0F2C80
:100EE0004FF0010508D838B94FF0FF3021460022F5
:100EF000002500F031F87460284670BD82B00020F3
:100F000043F640010190C4F202014A6842F4804273
:100F10004A604A6802F480420192019A009008688F
:100F200040F080500860086800F080500090009801
:100F300002B07047002848BF704700F01F0101222F
:100F400002FA01F11C2202EAD0004EF20012CEF2A7
:100F5000000281507047000010B54EF60C5CCEF2D6
:100F6000000CDCF80030C3F3022E8EF00704042CD2
:100F700028BF0424BEF103034FF0FF3E0EFA04F431
:100F800038BF0023A14399400EFA03F39A4311435B
:100F900000F00F0200F160430901043A03F56443D5
:100FA0006244002848BF02F10C03197010BD000014
:100FB0004EF60C51CEF200010A684FF6FF031A40BC
:100FC00060F30A2242F0806040F0FD7008607047D4
:100FD000002804BF012070472DE9F04143F60808BE
:100FE000C4F202080446D8F8F8030D4600F00700E2
:100FF000814207D988F8F853D8F8F80300F00700C1
:10100000A84277D12068810717D5410705D5D8F8C0
:10101000001041F4E051C8F80010010705D5D8F8D8
:10102000001041F46041C8F80010D8F80010A26820
:1010300021F0F0011143C8F80010C00740D1D8F8E2
:10104000F80300F00700854207D288F8F853D8F873
:10105000F80300F00700A8424CD12068410707D5EB
:10106000D8F80010E26821F4E0511143C8F80010EC
:10107000000708D5D8F80000216920F4604040EA54
:10108000C100C8F8000000F07DF8D8F8001044F264
:101090004832C1F30311C0F60002515C40F2100265
:1010A00020FA01F140F20C00C2F200000068C2F226
:1010B00000021160FFF7FEFE0020BDE8F08100BFD6
:1010C0006068811E022907D258F8081C89015CBF9C
:1010D0000120BDE8F08111E0012807D158F8081C73
:1010E00089035CBF0120BDE8F08107E058F8081CC7
:1010F000890703D40120BDE8F08100BFD8F80010B3
:1011000021F003010843C8F80000FFF797FA0646EC
:1011100041F28837D8F80000616800F00C00B0EBAD
:10112000810F8CD0FFF78AFA801BB842F2D90320D6
:10113000BDE8F08140F2100043F60801C2F2000061
:10114000C4F202010068096844F25832C1F38221F6
:10115000C0F60002515CC8407047000040F2100029
:1011600043F60801C2F20000C4F2020100680968F7
:1011700044F25832C1F34231C0F60002515CC8401B
:101180007047000010B543F60404C4F2020461681D
:10119000C1F3810142F20040C0F2F400DFE801F047
:1011A00002040A0210BD00BF47F64000C0F27D10E5
:1011B00010BD00BF206821682368490247F640013E
:1011C000C0F27D1100F03F02C3F388105CBF42F211
:1011D0000041C0F2F401A1FB00010023FFF762F817
:1011E00021680222C1F3014102EB4101B0FBF1F0A1
:1011F00010BD0000002804BF012070472DE9F04118
:1012000082B00446007843F60006C007C4F2020626
:101210000CD0B06800F00C00042840F081803068E9
:10122000800303D56068002800F06881207880077B
:101230001BD5B06810F00C0F09D0B06800F00C009E
:10124000082840F087807068400200F18380306891
:10125000800703D5E068012840F05081306821699B
:1012600020F0F80040EAC10030602078000713D475
:10127000207840072AD4A569002D00F03A81B06893
:1012800000F00C00082840F0A580012D40F00E81F0
:10129000012002B0BDE8F0816069002800F0828082
:1012A0000020C4F247200121C0F8801EFFF7C6F9D4
:1012B000054600BF706F8007DAD4FFF7BFF9401B07
:1012C0000228F7D9032002B0BDE8F081306C5FEA54
:1012D000C0080AD400200190306C40F08050306487
:1012E000306C00F080500190019847F20007C4F282
:1012F00000073868C00547D4386840F4807038600B
:10130000FFF79CF9054600BF3868C0053CD4FFF7DD
:1013100095F9401B0228F7D9032002B0BDE8F081FF
:10132000B06800F00C00082803D1706840023FF557
:1013300076AF61683068B1F5803F07D0B1F5A02F76
:1013400040F09A8040F480203060306840F4803073
:1013500030609AE0E068002840F20000C4F24720C4
:101360005CD001210160FFF769F90546306880070C
:101370003FF574AFFFF762F9401B0228F6D903204E
:1013800002B0BDE8F08100BFA168306F012905D02F
:10139000052955D140F004003067306F40F001005E
:1013A000306756E00020C4F247200021C0F8801EBC
:1013B000FFF744F9054600BF706F80077FF558AF0F
:1013C000FFF73CF9401B0228F6D9032002B0BDE824
:1013D000F08100BF0027C4F2472700203866FFF7DE
:1013E0002DF9022D05460DD13068800140F18A802B
:1013F000FFF724F9401B02284FF00300F4D902B094
:10140000BDE8F0813068800173D5FFF717F9401B04
:1014100002284FF00300F5D9F1E700BF0021016079
:10142000FFF70CF9054600BF306880077FF51DAF58
:10143000FFF704F9401B02284FF00300F4D9DEE760
:1014400020F001003067306F002920F00400306781
:101450007AD0FFF7F3F8054641F28837306F8007FE
:1014600000F18480FFF7EAF8401BB842F6D9032068
:1014700002B0BDE8F08100BF20F4803030603068F9
:10148000002920F4802030607AD0FFF7D7F8054695
:10149000306880033FF5CAAEFFF7D0F8401B6428E0
:1014A000F6D9032002B0BDE8F08100BF7068E169A1
:1014B00000F480028A4221D1216A00F03F028A4270
:1014C0001CD147F6C071626A0140B1EB821F15D191
:1014D000A16A4FF6FF73C903994300F44032A1F5A6
:1014E00080318A420AD1E16A00F07060B0EB016F8E
:1014F00004D1002002B0BDE8F08100BF012002B09D
:10150000BDE8F08104F11C052FCD084340EA8210AC
:10151000D9034FF6FF729143A1F5803140EA05608F
:101520000843706001203866FFF788F8044600BF62
:1015300030688001DDD4FFF781F8001B02284FF0EE
:101540000300F5D95BE700BFFFF778F8054641F2E5
:10155000883700BF306F800708D5FFF76FF8401B52
:10156000B8424FF00300F5D949E700BFB8F1000FCA
:101570003FF581AE306C20F0805030647BE600BFD8
:10158000FFF75CF8054600BF306880037FF54EAE7C
:10159000FFF754F8401B64284FF00300F4D92EE7FE
:1015A000411E0020B0EB116F1CBF012070474EF2AE
:1015B0001002CEF2000251604EF62351CEF200012D
:1015C000F0230B7007219060116070477047000096
:1015D0007047000090F83C20012A4FF0020241D0F1
:1015E00010B580F83D200268D2F804E0D2F808C0B7
:1015F0000C682EF07003234340F6FF34C4F200045D
:10160000A242536010DCB2F1804F1ED040F2004382
:10161000C4F200039A4218D040F60003C4F200035B
:101620009A4212D016E000BF40F60043C4F2000315
:101630009A420AD044F20003C4F201039A4204D051
:101640000023C4F201039A4204D149682CF08003BC
:10165000194391600121002280F83D1080F83C2060
:10166000BDE8104010467047002804BF01207047B5
:1016700010B5044690F83D0028B9002084F83C00DD
:10168000204600F01FF8022084F83D002068211D4C
:1016900001F066FD012084F8460084F83E0084F8DD
:1016A0003F0084F8400084F8410084F8420084F848
:1016B000430084F8440084F8450084F83D0000208D
:1016C00010BD000000680021C4F20101884218BF6B
:1016D000704780B582B00020019043F64400C4F208
:1016E00002000168002241F0010101600068002150
:1016F00000F00100019001981920FFF72DFC19203E
:1017000002B0BDE88040FFF715BC000090F83D1026
:1017100001291CBF01207047022180F83D1000689C
:1017200040F6FF32C168C4F20002904241F001016C
:10173000C1600FDCB0F1804F1DD040F20041C4F217
:101740000001884217D040F60001C4F2000188422F
:1017500011D017E040F60041C4F2000188420AD0DF
:1017600044F20001C4F20101884204D00021C4F215
:101770000101884206D1816801F00701062904BFF2
:1017800000207047016841F00101016000207047AE
:1017900090F83C20012A4FF002026CD080B580F80E
:1017A0003D20D0F800C04FF67772DCF8083023EA0D
:1017B0000202CCF808200B684F2B29DC1F2B45DDDB
:1017C000202B46D0302B44D0402B40F0AF80D1F8B6
:1017D00004E0C968DCF82030DCF8202022F00102A7
:1017E000CCF82020DCF8182022F0F00242EA0111A7
:1017F00023F00A0242EA0E02CCF81810CCF820209E
:10180000DCF8081041F0470121F0300128E000BF6A
:101810006F2B33DDB3F5005F74D0B3F5805F21D05B
:10182000702B40F08380D1E901E3C968DCF808201F
:1018300043EA0E0322F47F4243EA01211143CCF82C
:101840000810DCF8081041F0770109E00BB1102B0B
:101850006CD1DCF8081021F07001194341F0070148
:10186000CCF808100022012180F83D10002180F8FA
:101870003C10BDE880401046704700BF502B21D07F
:10188000602B53D1D1F804E0C968DCF82030DCF8D3
:10189000202022F01002CCF82020DCF8182022F4BE
:1018A000704242EA013123F0A00242EA0E12CCF863
:1018B0001810CCF82020DCF8081041F0670121F066
:1018C0001001CDE7D1F804E0C968DCF82030DCF87D
:1018D000202022F00102CCF82020DCF8182022F091
:1018E000F00242EA011123F00A0242EA0E02CCF8A9
:1018F0001810CCF82020DCF8081041F0570121F036
:101900002001ADE7D1E901E3C968DCF8082043EA2A
:101910000E0322F47F4243EA01211143CCF8081060
:10192000DCF8081041F480419AE700BF01229AE7F1
:10193000002804BF012070472DE9F047044690F8C5
:101940003D000D4628B9002084F83C00204600F0F8
:1019500049F8022084F83D00206844F207028168BB
:1019600091438160211D01F0FBFB20684FF6FF7859
:1019700081688269D0F820C0D5E9003ED5E9026AC5
:1019800043EA0109AB6922EA080246EA03234FF65B
:10199000FC46B343D5E9076742EA0A0229691A43BC
:1019A00042EA062242EA01112CF0AA026B6942EADD
:1019B0000E0241EA073142EA0312C0F80890816141
:1019C0000262012084F8460084F83E0084F83F005B
:1019D00084F8420084F8430084F83D000020BDE80C
:1019E000F087000010B586B0006840F60002C4F22F
:1019F000000200219042CDE90411CDE902110191CC
:101A000022D0B0F1804F51D1002043F63001009038
:101A1000C4F202010A691C2442F001020A610A6947
:101A200002F001020092009A00900868032240F040
:101A3000010008600868012100F001000090009892
:101A40000020C4F202001FE043F630000091C4F20F
:101A5000020002691E2442F004020261026902F0DF
:101A600004020092009A00910168C02241F0020134
:101A700001600068022100F0020000900098002040
:101A8000C4F2020000F5806001920222029200225C
:101A9000059101A9CDE90322FEF7FAFC20460021B9
:101AA0000022FFF759FA2046FFF744FA06B010BDAE
:101AB00080B590F83E2090F83F3090F842E090F8E2
:101AC00043C004290AD0B9B9012A4FF0010208BF66
:101AD000BEF1010F34D0104680BD00BF012B4FF086
:101AE000010208BFBCF1010FF5D1022180F83F10BF
:101AF00080F8431000681EE0012A4FF0010208BF81
:101B0000012BE8D1BEF1010FE5D1BCF1010FE2D10B
:101B1000022280F83E2080F83F2080F8422080F8A2
:101B2000432091B10068016A21F001010162016A5C
:101B300041F00101016210216FF0100209E000BFC5
:101B4000022180F83E1080F84210006801216FF0F9
:101B50000102036A1A400262026A114301620168CB
:101B6000002241F001010160104680BD80B590F86F
:101B70003E2090F83F3090F842E090F843C00429AE
:101B80000AD0F9B9012A4FF0010208BFBEF1010FD6
:101B900046D0104680BD00BF012B4FF0010208BFA8
:101BA000BCF1010FF5D1022180F83F1080F84310FD
:101BB0000068016A21F010010162016A41F0100120
:101BC00001622AE0012A4FF0010208BF012BE0D197
:101BD000BEF1010FDDD1BCF1010FDAD1022280F894
:101BE0003E2080F83F2080F8422080F84320E1B179
:101BF0000068016A21F001010162016A41F00101FE
:101C00000162016A21F010010162016A41F01001D4
:101C10000162C16841F00201C16004210FE000BF10
:101C2000022180F83E1080F842100068016A21F01D
:101C300001010162016A41F0010101620221C268F1
:101C40001143C1600168002241F0010101601046AA
:101C500080BD00007047000070B504460068C5688C
:101C60000669B10716D515F0020113D06FF0020115
:101C70000161012121778069800703D02046FFF7A9
:101C8000E9FF05E0204600F0BDF8204600F002FA2A
:101C900000202077700719D515F0040016D02068B1
:101CA0006FF00401016102212177806910F4407F07
:101CB00004D02046FFF7CEFF06E000BF204600F02C
:101CC000A1F8204600F0E6F900202077300717D56C
:101CD00015F0080014D020686FF00801016104219C
:101CE0002177C069800703D02046FFF7B3FF05E0E6
:101CF000204600F087F8204600F0CCF9002020773D
:101D0000F00619D515F0100016D020686FF01001FC
:101D1000016108212177C06910F4407F04D020467A
:101D2000FFF798FF06E000BF204600F06BF8204662
:101D300000F0B0F900202077F00718BF15F001007F
:101D400002D1300609D412E020686FF00101016170
:101D5000204600F019FA300609D515F0800006D0AB
:101D600020686FF0800101612046FFF72FFC7006AC
:101D700009D515F0400006D020686FF040010161E0
:101D8000204600F02BFAB00658BF70BD15F02000B9
:101D900008D021686FF0200220460A61BDE870403B
:101DA000FFF716BC70BD000080B586B040F2004160
:101DB0000068C4F20001002288420592CDE90322A6
:101DC0000292019202D006B080BD00BF43F63000FF
:101DD0000092C4F20200036843F00103036000684C
:101DE00000F0010000900098C02001900220CDE991
:101DF0000202CDE9042001F5FE3001A9FEF748FBFF
:101E000006B080BD7047000090F83C30012B04BF45
:101E1000022070474FEAB202032A00F2ED802DE95A
:101E2000F043DFE802F003A3397300BF0368002624
:101E30001D6A1A6AC4F2010622F001021A621A46E9
:101E40005C6852F818CFB3428E68D1F800E025F0F4
:101E5000020545EA06050CD1CE68D1E9057824F4DF
:101E6000407425F00C0526F004063C43354344EA53
:101E700008042CF0730747EA0E075C609F614F6807
:101E800009695F631D629F6947F008079F619F6949
:101E900027F004079F61A4E0036800261D6A1A6A00
:101EA000C4F2010622F480721A621A46D3F804C002
:101EB00052F81CEFB3428E680C6825F4007545EAB1
:101EC00006250FD1CE68D1E90598360240F2FF47CA
:101ED00025F44065BE4335432CF4405748EA0906D3
:101EE00047EA061C2EF073072743C3F804C0DF61DE
:101EF0004F680969DF631D62DF6947F00807DF612A
:101F0000DF6927F00407DF616BE000BF036800278B
:101F1000D3F820C01A6AC4F2010722F480521A6270
:101F20001A465C6852F81C5FD1F800E08E68BB422C
:101F300004D14F6924F4804444EA87142CF40057F8
:101F400047EA063725F4E64646EA0E265C60DE617F
:101F50004E6809691E641F62DF6947F40067DF612C
:101F6000DF6927F48067DF613AE000BF036800267D
:101F70001D6A1A6AC4F2010622F010021A621A4699
:101F8000D3F804C052F8184FB3428E68D1F800E07D
:101F900025F0200545EA06150FD1CE68D1E9059850
:101FA0006FF0400725F0C00507EA061635432CF40C
:101FB000406748EA090647EA860C24F4E64444EA06
:101FC0000E27C3F804C09F614F6809699F631D62B3
:101FD0009F6947F400679F619F6927F480679F614D
:101FE00009021368194311600021BDE8F043002283
:101FF00080F83C20084670470121002280F83C20F0
:1020000008467047002804BF0120704710B50446F9
:1020100090F83D0028B9002084F83C00204600F0EC
:102020001FF8022084F83D002068211D01F098F877
:10203000012084F8460084F83E0084F83F0084F8CC
:10204000400084F8410084F8420084F8430084F89A
:10205000440084F8450084F83D00002010BD0000D5
:10206000006840F20041C4F20001884218BF704786
:1020700081B00020009043F64000C4F202000168E5
:1020800041F002010160006800F002000090009839
:1020900001B0704770470000C1B1042908D0082979
:1020A00014BF41224022825C012A05D016E000BF05
:1020B0003F22825C012A11D10222082910D0042972
:1020C00014BF80F8412080F83F200BE090F83E20BC
:1020D000012A03D1022280F83E2003E0012070474C
:1020E00080F84020006801F01F010122036A8A4045
:1020F00023EA02010162036A4421C4F201011A4386
:10210000A1F144039842026216D040F6FF31C4F2B6
:10211000000188421ADCB0F1804F28D040F2004123
:10212000C4F20001884222D040F60001C4F200014E
:1021300088421CD022E000BF0A6842F400420A60D4
:1021400040F6FF31C4F200018842E4DD40F6004170
:10215000C4F2000188420AD044F20001C4F2010135
:10216000884204D00021C4F20101884206D181686E
:1021700001F00701062904BF00207047016841F003
:10218000010101600020704700680021C4F20101D4
:10219000884218BF7047B0B540F2E804C2F20004AC
:1021A000204600F001FC40F27800C2F2000000F08E
:1021B000B3FD40F2A815C2F20005284600F0F4FB7A
:1021C00040F23810C2F2000000F0A6FD204600F0F8
:1021D0004FFC2846BDE8B04000F04ABC7047000004
:1021E000002804BF0120704710B5044690F8410054
:1021F00028B9002084F84000204600F021F824206F
:1022000084F841002068C16821F40051C160204673
:1022100001F022F82068016921F4904101614169CF
:1022200021F02A014161C16841F40051C1600020E0
:102230002021606484F8411084F84210606310BD6E
:1022400080B586B041F200010068C4F201010022AD
:1022500088420592CDE903220292019202D006B093
:1022600080BD00BF43F630000092C4F20200436913
:1022700043F010034361436903F010030093009B94
:102280000092036843F001030360006800F001005E
:10229000009000984FF4C06001900220CDE9020246
:1022A000032004900720059001F5704001A9FEF776
:1022B000EFF806B080BD0000FEE7000040F2F81025
:1022C000C2F20000FEF7C4B910B581B00021009140
:1022D000806B40F21001C2F2000190F83DC0096825
:1022E0004BF28952C908C1F2F842A1FB0212110A4D
:1022F000232251430091009901B3009901390091C3
:102300000268116889051DD50099B9B10099013994
:1023100000911168890515D5009979B100990139A5
:102320000091116889050DD5009939B100990139DD
:10233000009111688905DED404E000BF016C41F012
:1023400020010164446B4FF0000E002C1CBF0021E3
:10235000E163816B00291CBF0022CA630268002C64
:10236000136823F480631360A0F82AE018BFC4F850
:1023700050E000291CBF00230B65116821F001010A
:10238000116090F83D1060290CD1202180F83D109B
:10239000002180F83E10016401B0BDE81040FEF756
:1023A00053B900BF0CF02801282911D1116841F060
:1023B00001011160116841F4806111600021016325
:1023C000282180F83D1001B0BDE81040FEF742BC66
:1023D000202180F83D10002180F83E1001B0BDE8BA
:1023E0001040FEF737BC000010B5044690F83D10D1
:1023F00090F83E00B0F1100218BF0122403818BF1B
:102400000120024208BF222934D001F028002828E8
:102410003AD100202063282084F83D0020684168DC
:10242000090542D5416821F400614160606B90F874
:102430003510012958D1A06B42F2C921C0F6000124
:102440000165FEF70FF8002861D020684169490650
:1024500006D50069616A0870616A206801316162AD
:10246000016821F001010160202084F83D00A06B8B
:102470004BE000BF2068026822F4006202604268FC
:10248000120505D50CE000BF20684268120507D48C
:10249000602905D0202184F83D10002184F83E10E9
:1024A0000021216341680905BCD494F83D106029DE
:1024B00050D1202184F83D10002121644169490652
:1024C00006D50069616A0870616A2068013161623D
:1024D000016821F0010101602046FEF7B5F8206C8B
:1024E000000717D11BE000BF42F2C921C0F600016E
:1024F0000165FDF7B7FF50B12168606B0A6822F0F3
:1025000001020A60202184F83D10016D8847206C8B
:10251000000704D02068416821F4E061416094F82C
:102520003D00216C490758BF10BD282810D100205C
:10253000CFF6FF70E06200212020216384F83D0087
:10254000204684F83E10BDE81040FEF737BC00BFBF
:1025500010BD00BF4169490605D50069616A087070
:10256000606A013060622046FEF774FB206C000751
:10257000D0D1D4E7C16A428D042A07D10168426AEA
:102580004B6823F480634B60096911E0428D032A94
:1025900016D102680229536823F48063536005D082
:1025A000042903D0116821F4806111601169426A25
:1025B0001170416A01314162418D01394185704795
:1025C000428D022A12D14A1E0F2A19D8DFE802F0E2
:1025D00008121812181818181818181818181808A7
:1025E0000268136823F480630EE000BF0168426A4A
:1025F000CAE700BF0268136843F4806304E000BFC9
:102600000268136843F4007313601269436A1A7016
:10261000426AD0F800C0531C4362438D013B43859E
:10262000DCF810305370426A036801324262428D16
:10263000013A42855A6822F440725A60202280F89A
:102640003D2090F83E300022402B80F83E2003D100
:102650000263FEF7B9BB00BFB1F1080218BF122236
:10266000203918BF11460163FEF7AABB81B090F86C
:102670003D10222910D1C16A428D042A0ED301686F
:10268000426A09691170416A01314162418D013923
:102690004185418D032959D001B07047C36A012A91
:1026A00054D8022B52D00022009240F21002C2F203
:1026B000000212684BF28953D208C1F2F843A2FB20
:1026C00003231A0A02EB82020092009A013A009256
:1026D000009A002A42D0026813689B0517D5009B18
:1026E000013B0093009BCBB313689B050FD5009B68
:1026F000013B0093009B8BB313689B0507D5009BA0
:10270000013B0093009B4BB313689B05DDD413681A
:1027100023F480631360536823F4E0635360126909
:10272000436A1A70426A01324262428D013A42851E
:10273000202280F83D2090F83E300022402B80F887
:102740003E2027D1026301B0FEF73EBB006841681E
:1027500021F48061416001B0704700BF016C41F01D
:10276000200101640168426A4B6823F4E0634B6016
:1027700009691170416A01314162418D0139418518
:10278000202180F83D10002180F83E1001B0FEF7B6
:1027900061BA00BFB1F1080218BF1222203918BF78
:1027A0001146016301B0FEF70BBB0000C16A90F84F
:1027B0003D20212A18BF7047428D4AB1416A026804
:1027C00011F8013B13614162418D01394185704728
:1027D00011F5803F18BF082918D101684A6822F412
:1027E000E0624A600A6842F400720A600021202216
:1027F000016380F83D2090F83E2080F83E10402A8A
:1028000008BFFEF7E3BAFEF7DDBA00BF2029E4D027
:1028100001684A6822F4E0624A60112101630021E4
:1028200080F83E10202180F83D10FEF7CBBA000062
:1028300090F83D1090F83EC0C26A038D002B08BF8F
:10284000212919D0212905D0BCF1400F08BF222928
:1028500000D07047418D69B390F83E10402908BF01
:1028600000F040B8416A026811F8013B136141620F
:10287000418D01394185704712F5803F18BF082A04
:102880001ED101684A6822F4E0624A600A6842F494
:1028900000720A6000212022016380F83D2090F838
:1028A0003E2080F83E10402A08BFFEF78FBAFEF7A0
:1028B00089BA00BF0068416821F4806141607047B7
:1028C000202ADED001684A6822F4E0624A601121C1
:1028D0000163002180F83E10202180F83D10FEF7B2
:1028E00071BA000090F83D10026D5AB1026D012AD4
:1028F00014D10168826CD2B20A61016D01310165A7
:10290000704700BFC26C816C012A15D10268C9B240
:102910001161016D02310165704700BF026D022A2D
:1029200012D1222918D101680A6842F480720A6023
:10293000016D0131016570470268C1F30721116122
:10294000016D01310165704700684169090644BFA6
:1029500000210161704700BF428D5AB1212909D180
:10296000416A026811F8013B13614162418D0139EE
:1029700041857047428D002A08BF2129EAD10168AC
:102980004A6822F4E0624A600A6842F400720A600F
:1029900000212022016380F83D2080F83E10FEF7E0
:1029A00015BA0000FEE7000070B582B00446406929
:1029B0000068456A608B2678281AA08300B22583B8
:1029C00001F08BF99FED120B53EC102B00F0C0FFC0
:1029D00041EC100B002E8DED000B9DF807209FEDB4
:1029E0000E0B82F080028DF80720DDE900321CBF5B
:1029F0001846114653EC102B01F012FA41EC100B63
:102A0000658384ED0E0B02B070BD00BF00BF00BF38
:102A10000000000000E0954000000000004CDD4098
:102A200070B504460DF1180E9EE80150DDE904650D
:102A3000217000216260C4E905E1E16104F1200236
:102A4000C4E90E11C4E91011C4E9121161462381D1
:102A5000E6602582C4E90B0C82EC030AFFF71CFB3D
:102A600060693C21BDE87040FFF722B8000000001B
:102A70002DE9F0472DED048B90ED128B9FED489BD7
:102A800055EC186B044653EC192B3046294601F0DF
:102A9000ECFB40B99FED449B304653EC192B294683
:102AA00001F0EAFB28B9B0EE498AF0EE698A84EDBC
:102AB000129B2078B0B101286ED19FED3D0B56ECF2
:102AC000185B58EC107B284631463A46434601F0E5
:102AD000DAFBE8B9606821890122FDF7A9FDE06809
:102AE000218A45E09FED320B55EC187B5AEC106BB8
:102AF000384629463246534601F0C5FBE0B96068C6
:102B000021890022FDF794FDE068218A012228E056
:102B1000606821890022FDF78BFDD4F80CA0B4F881
:102B20001090284631463A46434601F0A5FBE8B9E5
:102B30005046494601221CE0D4F80490B4F80880BD
:102B4000384629463246534601F096FB002848464F
:102B5000414614BF00220122FDF76AFDE068218A88
:102B60000022FDF765FD342506E000BF50464946CA
:102B70000022FDF75DFD38259FED0D0B94ED121B36
:102B800051EC100BCA0F51EC110B62F3DF7101F025
:102B900077F8E16A09684851BDEC048BBDE8F0871D
:102BA0000000000000FEA8400000000000FEA8C0D9
:102BB000000000000000000080ED100B70470000D6
:102BC000FEE70000000000002DE9F04F81B02DED80
:102BD000068B86B0B0EE408A04464030F0EE608A44
:102BE0000EC04EF200019FED480B0020C4F26F01B1
:102BF000DDF85CB06070C4E91800C4E91A01642013
:102C000057EC105BB0EE429AB0EE41AAA06051ECD6
:102C1000180B2A463B46F0EE629AF0EE61AA84F861
:102C200003B001F037FB002861D15AEC1A6B304633
:102C300051462A463B4601F02DFB002857D158EC5F
:102C4000199B484641462A463B4601F023FB002893
:102C50004DD116989FED2E0BA0700138B0FA80F080
:102C6000400957EC105B2070304651462A463B46DF
:102C700084ED048B84ED06AB84ED089B84ED0A8B18
:102C800001F0CEF841EC190B484641462A463B4636
:102C900084ED0C9B00F05CFE41EC100BBBF1010FCE
:102CA00084ED0E0B23D18DED008B9DF8070080F095
:102CB00080008DF807009DED001B84ED0A1B8DED53
:102CC000029B9DF80F0080F080008DF80F009DEDB5
:102CD000021B84ED0C1B8DED040B9DF8170080F09A
:102CE00080008DF817009DED040B84ED0E0BFDF7B1
:102CF000A5FCA168401A606006B0BDEC068B01B06F
:102D0000BDE8F08F00BF00BF000000000000000021
:102D10009A9999999999B93F2DE9F04F81B02DED84
:102D2000088B84B00446407830B1FDF787FCD4E9C5
:102D30000112411A914207D2002004B0BDEC088B69
:102D400001B0BDE8F08F00BF0390206CA16C90ED46
:102D5000008B91ED000B56EC185B51EC100B2A46E2
:102D6000334601F05BF994ED160B81460F4653ECA8
:102D7000102B2846314601F051F994ED0C0B834697
:102D800094ED149B884651EC100B4A463B46CDF817
:102D90000890019701F044F853EC192B00F024FD42
:102DA00094F800A041EC1A0BBAF1000F84ED14ABBB
:102DB00015D194ED0A0B054653EC102B10460E4628
:102DC00019465A46434601F02BF802460B46284660
:102DD000314601F023F941EC1A0B84ED14AB94ED6C
:102DE0001A9B55EC1A6B59EC197B304629463A462A
:102DF0004B4601F03AFAB0EE49BAF0EE69BA40B982
:102E000094ED18BB304653EC1B2B294601F034FAE5
:102E100028B9B0EE4BAAF0EE6BAA84ED14BBBAF160
:102E2000000F0BD094ED0A0BDDE9011053EC102BD1
:102E300000F0F6FF41EC1B0B02E000BF9FED20BB52
:102E400094ED0E0B5A4651EC100B434600F0E8FF90
:102E500002460B4651EC1A0B01F0E0F802460B4615
:102E600051EC1B0B00F0C0FC3A464B4605460E46A3
:102E700041EC1A0B01F0F9F988B994ED18BB28461A
:102E800053EC1B2B314601F0F7F9B0EE4A9AF0EE05
:102E90006A9A002804BFB0EE4B9AF0EE6B9A606C11
:102EA00080ED009B039884ED168B6060012004B0D8
:102EB000BDEC088B01B0BDE8F08F00BF00BF00BFC4
:102EC0000000000000000000012937D14278AABBB1
:102ED000F0B581B02DED028BD0E9103290ED1A8B58
:102EE00092ED000B064680ED140B93ED001B54ECA5
:102EF000105B80ED161B53EC182B28460F4621461D
:102F000001F0B3F90246394630461AB180ED148B10
:102F10000FE000BF90ED188B284653EC182B21468C
:102F200001F0AAF9024639463046002A08BF80ED72
:102F3000148BBDEC028B01B0BDE8F0400139B1FA51
:102F400081F14909417070472DE9F04F81B02DEDB5
:102F5000048B58EC106B57EC115BB0EE419AB0EE5D
:102F6000408A0446304641462A463B46F0EE619A86
:102F7000F0EE608A01F080F998BB607884ED188BE0
:102F800084ED1A9B68B3D4F844B02A469BED000B3D
:102F90003B4659EC10AB5046494601F066F918B172
:102FA0008BED009B0EE000BF50464946324643463B
:102FB00001F062F9B0EE489A0028F0EE689A08BF76
:102FC0008BED009B94ED140B94ED1A8B55EC106B6C
:102FD00053EC182B3046294601F047F930B184ED07
:102FE000148BBDEC048B01B0BDE8F08F94ED188B11
:102FF000304653EC182B294601F03EF9002808BF53
:1030000084ED148BBDEC048B01B0BDE8F08F0000A3
:103010000129B8BF7047F0B581B0044608460F4695
:1030200000F072FE0546A0680E4600F06DFE0246F6
:103030000B462846314600F08BFC94ED0C0B054600
:103040000E4651EC100B2A46334600F0E9FE94ED93
:103050000E1B41EC100B51EC110B2A46334684ED4C
:103060000C0B00F075FC41EC100BA76084ED0E0B0F
:1030700001B0BDE8F04070477047000070470000A5
:10308000FDF7EEBE70B592B006AC20463021FDF7DC
:1030900081F9002543F640000595CDE90355CDE9BA
:1030A00001550095C4F202000168022641F08051EA
:1030B0000160006800F080500090009847F2000026
:1030C0000095C4F20000016841F4404101600068CD
:1030D00000F44040009000980120099010200A90D0
:1030E00008200E904020CDE90F06042011902046C4
:1030F0000696CDE90C65FEF77DF818B172B600BFF3
:10310000FEE700BF0F20CDE901064FF48050CDE966
:10311000040501A803210395FDF75AFF10B172B60B
:10312000FEE700BF12B070BD4EF68850CEF2000030
:10313000016841F4700101607047000040F24C20CA
:10314000C2F20000FEF788BD40F29420C2F20000F7
:10315000FEF782BD40F22430C2F20000FEF77CBDD3
:10316000B0B540F2FF7E0568C4F2000E40F2000CDC
:103170007045C4F2010C1DDD40F60003C4F20003EB
:10318000984220D060451ED040F60043C4F20003B0
:10319000984218D04FF6FF73C4F2000398421DDC2A
:1031A000704527DCB0F1804F3CD040F20043C4F2C0
:1031B000000335E0B0F1804F05D040F20043C4F287
:1031C00000039842E6D14B6825F0700243EA0205FD
:1031D0004FF6FF73C4F200039842E1DD44F2FF337F
:1031E000C4F20103984211DC60451BD044F2000395
:1031F00014E000BF40F60003C4F20003984211D06F
:1032000040F60043C4F200030AE000BF44F60003A6
:10321000C4F20103984205D044F20043C4F2010312
:10322000984204D1CB6825F4407243EA02050A684B
:103230008C684B696045C462826202D10969CCF82E
:103240003010026825F0800142F004021943026048
:10325000012242610160B0BDB0B50446006804F1CE
:1032600008030ECB0569194325F440552A43026132
:103270006269E3691143C268194349F20C639A43D6
:103280001143C1604169A26921F4407141F20043D8
:10329000114340F48062C4F201039A42416103D1B8
:1032A000FDF75CFF02E000BFFDF744FFE1694FF668
:1032B0009C7563681922C0F6FF75B1F5004FA0FB3D
:1032C00002011FD15A00DB0FFCF7ECFF48F21F513F
:1032D000C5F2EB11A0FB01235A0905F1805302FB53
:1032E0000300322303EBC000A0FB01014FF4F87090
:1032F00000EA111000EB0210C1F3421108442168EA
:103300008860B0BD9A009B0FFCF7CCFF48F21F51BC
:10331000C5F2EB11A0FB01235A0902FB0500322381
:1033200003EB0010A0FB0101F02000EA511000EBBC
:103330000210C1F34311084421688860B0BD000049
:10334000FEE700000000000092B040F20044C4F22A
:103350000204FDF793FDFFF795FE002543F63000CC
:103360000D95CDE90B55CDE909550695C4F202003E
:103370000168002241F00101016001684FF47046CC
:1033800001F00101069106990695016841F00201DC
:10339000016000684FF4704100F00200069006984A
:1033A0002046FDF745F90120CDE90A0509A9204687
:1033B00009960C95FDF76CF840F2F810A4F5D83199
:1033C000C2F2000048F2A0624FF48043C0F2010252
:1033D00080E82600C0E90353C0E90555C0E9075558
:1033E000FDF73AFC10B172B6FEE700BF40F24C2088
:1033F000A4F58231C2F2000040F2CF730C95CDE902
:103400000A55CDE906553F2280E82600C0E903357C
:10341000C0E90555FEF728F910B172B6FEE700BF06
:103420004FF48050099040F24C20C2F2000009A9EC
:10343000FEF7AEF910B172B6FEE700BF40F24C20C5
:10344000C2F2000006A9FEF7C5F818B172B600BFB7
:10345000FEE700BF40F294200021C2F200004FF0CE
:103460008042C0E9002103224FF6FF73CDE9092114
:103470000122CDE90611C0E9021301618161CDE9A4
:103480000B21CDE90D11CDE90F21119109A9FEF70D
:103490004FFA18B172B600BFFEE700BF40F29425A4
:1034A000C2F2000506A92846FEF794F810B172B6DC
:1034B000FEE700BF40F2DC200021A4F50032C2F29A
:1034C000000040F67F43CDE90611CDE90E11CDE9AC
:1034D0000C11C0E90021C0E9021301618161FEF70E
:1034E00091FD18B172B600BFFEE700BF40F2DC20CC
:1034F000C2F2000006A9FEF76DF818B172B600BF5F
:10350000FEE700BF602009900020CDE90A000D9081
:1035100040F2DC20C2F2000009A90022FEF774FC90
:1035200010B172B6FEE700BF40F2DC20C2F200002C
:1035300009A90422FEF768FC10B172B6FEE700BFCD
:1035400040F2DC26C2F200063046FEF72DFC40F2C7
:1035500024300021A4F5FE32C2F20000C0E90021AF
:1035600003224FF6FF73CDE909210122CDE90611AF
:10357000C0E9021301618161CDE90B21CDE90D1193
:10358000CDE90F21119109A9FEF7D2F910B172B658
:10359000FEE700BF40F22437C2F2000706A9384612
:1035A000FEF718F810B172B6FEE700BF40F26C30BB
:1035B000A4F57441C2F200004FF0000B0C234FF44D
:1035C000E13280E80608C0E903BBC0E9053BC0F86A
:1035D0001CB0FEF705FE08B172B6FEE740F24C20C3
:1035E000C2F20000FEF792F828463C21FEF7BEFA30
:1035F00038463C21FEF7BAFA30460021FEF74CFD72
:10360000304604214FF00408FEF746FD1920002142
:103610000022FDF7A1FC1920FDF78CFC4FF40050AF
:103620009FED6F9A9FED6FAACDE9004040F2E80050
:10363000B2EE048AC2F20000002122464FF4805309
:10364000B0EE480AF0EE490AB0EE4A1A0296049526
:10365000CDF80CB0FFF7E4F94FF40040CDE900409D
:1036600040F2A810C2F20000012122464FF480432C
:10367000B0EE480AF0EE490AB0EE4A1ACDE9026807
:1036800004974FF00108FFF7CBF940F20009C2F2AE
:103690000009D9F80010D1E908068C6A01F1380A4E
:1036A00001F1480701F1400500F0A6FD41EC180BBF
:1036B000304600F0A1FD41EC190B204600F09CFDC6
:1036C00040F2780441EC120BC2F20004B0EE480A5A
:1036D000B0EE491A204651463A462B46F0EE680AAB
:1036E000F0EE691ACDE9008BFFF76EFA2046012152
:1036F000FFF7EAFB20460221FFF78AFC9FED328BA1
:103700009FED339BB0EE480AB0EE491A2046F0EE2A
:10371000680AF0EE691AFFF717FCD9F80410D1E92E
:1037200008068C6A01F1380A01F1480501F14007E9
:1037300000F062FD41EC1A0B304600F05DFD41ECFB
:103740001B0B204600F058FD40F2381441EC120BE0
:10375000C2F20004B0EE4A0AB0EE4B1A20465146BF
:103760002A463B46F0EE6A0AF0EE6B1ACDE9008B72
:10377000FFF72AFA20460121FFF7A6FB2046022187
:10378000FFF746FCB0EE480AB0EE491A2046F0EECC
:10379000680AF0EE691AFFF7D7FB9FED0F8B40F236
:1037A000E800B0EE480AC2F20000F0EE680AFFF747
:1037B00003FA40F2A810B0EE480AC2F20000F0EEA0
:1037C000680AFFF7F9F9FEE70000000000FEA8C054
:1037D0000000000000FEA84000000000000069405A
:1037E0009A99993F9A99993E10B591EA030F48BF6B
:1037F00083F0004300F11A84841A71EB030C05D2A4
:10380000121943EB0C03001B61EB0C014FEA11543E
:10381000A4EB135CDFF81CE11EEA430F18BF9EEA1D
:10382000445F00F0748021EA045123EA0E0343F45C
:103830008013DCF1200E32D322FA0CFE10EB0E00C6
:1038400023FA0CFE41EB0E01CCF1200E03FA0EFE22
:1038500010EB0E00CCF1200E51F10001B1F5801FEC
:1038600032D201EB045112FA0EF2BDE8104058BFFB
:103870007047401C38BF5FEA420218BF70470028FB
:1038800014BF20F0010041F100014FEA410313F59C
:10389000001F38BF7047A1F1C04100F0B9BB012A39
:1038A00043EB0302ACF1200CDCF11F0E32BF4FF0F2
:1038B000000E23FA0CF310EB030041EB0451B4EBC0
:1038C000115FD0D0A1EB045101F58011490801EB43
:1038D00004515FEA30000ED350F1000038BF12FAF5
:1038E0000EFE08D1BDE81040C9E7401C38BF5FEAB2
:1038F0004202CAD1C3E7BDE810404FEA410313F5C5
:10390000001F38BF7047A1F1C04100F081BB9EEAA3
:10391000445F08D011EA5E0FBDE8104004BF01F01B
:10392000004100207047BDE8104070B500F022FB58
:1039300064FBBE3E0000E0FF491058BFC1F14041AA
:103940005B1058BFC3F140438B42EFF300807047D8
:103950002DE9C04130B4DFF8A8C23CEA111418BF09
:103960003CEA131400F0F0801CEA111481EA03050C
:1039700044EAD57418BF1CEA131500F0CB80A4EB01
:10398000050404F17F7404F500344FF0004545EA66
:10399000C12145EAC32341EA505143EA52534FEA59
:1039A000C0204FEAC222994208BF904200F0A08096
:1039B0004FEA13650FF24816765D4FEA134506FB92
:1039C00005F7C7F1807706FB07F74FEAD737A7FB64
:1039D00003687642A7FB06CEC8F5803838BFA8F149
:1039E000010807FB08E6A6FB028C4FF0000EE6FB81
:1039F00003CED8F100086FEA0C0C5CF1000C6FEA02
:103A00000E0E4EF1004EA6FB0C584FF00007E6FBE1
:103A10000E87A1FB08C6A0FB07CE16EB0E064FF0E3
:103A2000000545F10005E1FB076515F1E04E7EBF9D
:103A3000A4F580345FEA46066D4116F1800745F132
:103A400000054FEA172747EA05674FEA15254FEAB1
:103A50000666A6F1DE46B6F1805F20D9384605EB52
:103A6000C47124F0010C01EB0C11BCF1FE6F02D803
:103A7000F0BCBDE8008124425CBF01F5801E9EEAD7
:103A8000C47F02D4F0BCBDE80081244200F139803B
:103A9000A1F1C041F0BCBDE8004100F0B9BA4FEA65
:103AA000D02040EA41504FEAD1214FEAD22242EAE7
:103AB00043524FEAD323A7FB028607FB036605FBAD
:103AC00002661EEA0E0F58BFA6EB0056B6EB005674
:103AD0004FEA520E4EEAC37E18EB0E0E56EB530E13
:103AE000BCD518EB02085E417F1C55F10005B5E717
:103AF0004FF480154FF000074FF000064FF000081C
:103B0000ACE701F1C04101F000414FF00000F0BC12
:103B1000BDE800810CEA131511EA0C1F00D00CE07F
:103B200013EA0C1F00F025804FF0000081EA03012A
:103B300001F00041F0BCBDE80081F0BCBDE80041EF
:103B400081EA030100F064BAF0BCBDE8004170B541
:103B500000F010FA097EFC3E00F007B84FF00000BC
:103B600081EA030101F00041704781EA030100F09E
:103B70004FBAF0BCBDE8004122494FF00000704749
:103B8000FFFDFBF9F7F5F4F2F0EEEDEBE9E8E6E422
:103B9000E3E1E0DEDDDBDAD8D7D5D4D3D1D0CFCDA9
:103BA000CCCBCAC8C7C6C5C4C2C1C0BFBEBDBCBBE2
:103BB000BAB9B8B7B6B5B4B3B2B1B0AFAEADACABDD
:103BC000AAA9A8A8A7A6A5A4A3A3A2A1A09F9F9EB7
:103BD0009D9C9C9B9A999998979796959594939369
:103BE000929191908F8F8E8E8D8C8C8B8B8A898900
:103BF0008888878786858584848383828281818083
:103C00000000FF070000F87F51EA030C17D41CF5F1
:103C1000801F58BFBCF5801F00F10680994218BF75
:103C2000704708BF9042704707D711F5801F58BFF3
:103C300013F5801F19D499427047894270471CF5CB
:103C4000801F08D5BCF5801FF7D58B4218BF704781
:103C500008BF824270474FF4001C1CEB410F38BF75
:103C60001CEB430F01D28B42704770B500F082F914
:103C7000922449004FF000514FF08053FFF75CBE93
:103C80004FEA1153A3F58063D3F11E03A8BFD3F10C
:103C9000200C08DB4FF0004242EAC12252EA5052A7
:103CA00032FA03F0704709420BD4102BC4BF002036
:103CB000704703F5787CBCF1FF3F05D04FF0FF3033
:103CC00070474FF00000704770B500F053F900BF27
:103CD0004992248000207047F0E710F0004248BF6E
:103CE0004042B0FA80F310FA03F10AD0C3F11D0389
:103CF00003F5806302EB03524FEA415002EBD121FE
:103D000070474FF000007047B0FA80F310FA03F1EB
:103D10000AD0C3F11D0303F580634FEA03524FEA53
:103D2000415002EBD12170474FF000007047000076
:103D300051EA030C17D41CF5801F58BFBCF5801F37
:103D400000F10680994218BF704708BF9042704743
:103D500007D711F5801F58BF13F5801F19D499425A
:103D60007047894270471CF5801F08D5BCF5801F3D
:103D7000F7D58B4218BF704708BF824270474FF497
:103D8000001C1CEB410F38BF1CEB430F01D28B42D0
:103D9000704770B500F0EEF8922449004FF0805162
:103DA0004FF00053FFF7C8BD51EA030C17D41CF5C0
:103DB000801F58BFBCF5801F00F10680994218BFD4
:103DC000704708BF9042704707D711F5801F58BF52
:103DD00013F5801F19D499427047894270471CF52A
:103DE000801F08D5BCF5801FF7D58B4218BF7047E0
:103DF00008BF824270474FF4001C1CEB410F38BFD4
:103E00001CEB430F01D28B42704770B500F0B2F843
:103E1000922449004FF000514FF08053FFF78CBDC2
:103E200070B5DFF848C11CEA111E1EBF1CEA13154D
:103E30009EEA0C0F95EA0C0F00F06F8081EA0304F4
:103E40004EEAD47EAE4421EA4C1123EA4C1341F4ED
:103E5000801143F48013AEF17F7EA1FB024CA0FBE6
:103E60000365361955EB0C05A1FB034C4CF100031F
:103E7000A0FB021C16EB0C06654153F1000309423E
:103E800018BF46F0010613F4007F0BD14FEA03314F
:103E90004FEA053041EA155140EA165034036FF0FD
:103EA00003020AE04FEAC3214FEAC52041EA555117
:103EB00040EA5650F4026FF0020202EB2E4201EB90
:103EC000025585EACE710AD05FEA440C18BF24F08F
:103ED000004450F1000041F1000120EAD47040F2AA
:103EE000FE7C624500D270BDA84214BF4FF08044F2
:103EF0004FF04044002E08BF0024BEF1806FA8BFE1
:103F0000A1F1C041BDE8704080F2828001F1C04162
:103F100001F000414FF0000070470CEA13159EEAD3
:103F20000C0F18BF95EA0C0F06D081EA030E4FF074
:103F300000000EF0004170BD00F01CF88900013E49
:103F400000F007B800F009B84FEA430C5FEA5C5C88
:103F500008D081EA030100F05BB84FEA410C5FEA48
:103F60005C5CF6D102494FF0000070470000FF078B
:103F70000000F87F0EF1020E2EF0030E5EF8046BC7
:103F8000364205D4012A43EB030515F5001F12D86C
:103F9000012841EB010C1CF5001F0CD80ED14FEA93
:103FA000D17C0CEB4C0C0CF1020C15F5001F08BF7A
:103FB0004CEBD37C04E04FF0080C01E04FEAD37CDB
:103FC0000CEB4C0526FA05F606F00706B6F1040CD4
:103FD00006D20EEB860CBDE870404CF0010C604739
:103FE000DFE80CF0090B02024FF00041A1F50021BF
:103FF0004FF0000070BD19461046012851EB010436
:1040000018BFD4F5001484BF002001F0004170BD3A
:104010000808A0F500114FEA3101704710B591EA88
:10402000030F48BF83F000433FF5E6AB841A71EB02
:10403000030C07D28CF0004C121943EB0C03001B4D
:1040400061EB0C014FEA1154A4EB135CDFF8A4E11F
:104050001EEA430F18BF9EEA445F00F0B48021EAD5
:10406000045123EA6E035242C3EB6E0338BF5B1E5A
:10407000DCF1200E25D322FA0CFE10EB0E0043FAE1
:104080000CFE41EB0E01CCF1200E03FA0EFE10EBFC
:104090000E00CCF1200E51F1000129D401EB0451A6
:1040A00012FA0EF2BDE8104058BF7047401C1CBF0A
:1040B000B2F1004F704700280CBF491C20F00100EE
:1040C000704712EB020E43EB030218BF4FF0010ED4
:1040D0004EEA4202ACF1200CDCF11E0E56D943FA36
:1040E0000CFE10EB0E00CCF11E0E51F1FF31D5D5B8
:1040F0000EF1010E12FA0EFE404141EB010101EBFF
:10410000445C5FEA5C5C10D901EB045110EBDE709B
:1041100038BFBEF1004FBDE8104018BF70470028FF
:104120000CBF491C20F00100704734D24FEAD42C58
:1041300024F4006411F500111BD0B1FA81F20B3A9E
:10414000A41AA41ED2F12003914030FA03F31943BC
:10415000904001EBCC7101EB0451002CBDE8104004
:10416000A8BF704701F1C04101F000414FF00000CD
:104170007047B0FA80F310FA03F102D1BDE81040A5
:104180007047E41A173C4805C90AE2E701EB0451FD
:10419000BDE81040704749104FEA300001EB045170
:1041A000BDE8104002E04FF0000170474A0008BF30
:1041B0000042F8D0B2F5001F28BF704701F000415F
:1041C0004FF0000070479EEA445F07D011EA5E0F8F
:1041D000BDE8104004BF002100207047BDE810403A
:1041E00070B5FFF7C7FE00BF40DFF63E104683F014
:1041F000004170470000E0FF43004FEAD30C4FEA54
:104200003C0C43401FBF40070CF1605113F0FE4FC0
:1042100070471CF0006F03D10CF000410020704784
:104220000CF0004343EA507040EACC0010B500F0B7
:1042300038F800BF000000924FEA0001FFF7E8BE27
:104240004FF00041A1F500214FF00000704710B57C
:10425000FFF7DAFC0CBF0120002010BD10B5FFF7FE
:10426000D3FC14BF0120002010BD10B5FFF760FD86
:104270008CBF0120002010BD10B5FFF759FD2CBFE9
:104280000120002010BD10B5FFF78EFD94BF012066
:10429000002010BD10B5FFF787FD34BF01200020BE
:1042A00010BD0EF1020E2EF0030E5EF8044B2442F8
:1042B00004D44FEA4102B2F17F4F11D84FEA4003D4
:1042C000B3F17F4F0CD80ED14FEAD07C0CEB4C0CE5
:1042D0000CF1020CB2F17F4F08BF4CEBD17C04E033
:1042E0004FF0080C01E04FEAD17C0CEB4C0324FAB0
:1042F00003F404F00704B4F1040C06D20EEB840CB2
:10430000BDE810404CF0010C6047DFE80CF00708F6
:1043100002024FF00040A0F5800010BD08464200A8
:1043200018BFD2F1807288BF00F0004010BDF1EEDE
:10433000100A4FF6FF71C0F2C03120EA010040F0D0
:104340004070E1EE100A704700000000000000001D
:10435000010203040607080900000000010203042B
:10436000804300080000002018000000FC01000845
:104370009843000818000020A00900001C02000853
:10438000E8000020A801002001000000100000004B
:084390000024F400000000000D
:040000050800019955
:00000001FF
