:020000040800F2
:10000000C009002065020008391E0008411C0008D4
:10001000451C00085D040008B92500080000000028
:10002000000000000000000000000000F5220008B1
:100030006104000800000000F1220008F922000815
:100040007F0200087F0200087F0200087F0200088C
:100050007F0200087F0200087F0200087F0200087C
:100060007F0200087F0200087F0200087F0200086C
:100070007F0200087F0200087F0200087F0200085C
:100080007F0200087F0200087F02000800000000D5
:100090000000000000000000000000007F020008D7
:1000A0007F020008B52300087F0200087F020008D5
:1000B000C12300087F020008CD2300087F0200084A
:1000C0007F0200087F0200087F0200087F0200080C
:1000D0007F0200087F0200087F0200080000000085
:1000E0007F0200087F0200087F0200080000000075
:1000F0000000000000000000000000007F02000877
:10010000000000007F0200087F0200087F02000854
:1001100000000000000000000000000000000000DF
:100120007F0200087F0200087F0200087F020008AB
:100130007F02000800000000000000000000000036
:100140000000000000000000000000007F02000826
:100150007F0200087F0200087F0200087F0200087B
:100160007F0200087F02000800000000000000007D
:10017000000000000000000000000000000000007F
:10018000000000007F0200080000000000000000E6
:100190007F0200087F02000800F002F800F052F829
:1001A00014A696E8000CB244B344DA4501D100F03D
:1001B00049F8BAE80F000FA696E83000A5EB040551
:1001C00004EB0607AAEB0704A7F101074FEA151590
:1001D0004FEA3414A4F10104AC4201D300F032F828
:1001E00013F0010F18BFFB1A43F0010300F001F8F0
:1001F000DBE718473434000054340000103A24BFC1
:1002000078C878C1FAD8520724BF30C830C144BF7B
:1002100004680C6070470000704700000023002451
:1002200000250026103A28BF78C1FBD8520728BF06
:1002300030C148BF0B6070471FB503F0DCF91FBD2C
:1002400010B510BD00F0D0F81146FFF7F5FF02F031
:10025000B7F900F0EEF803B4FFF7F2FF03BC00F0CB
:10026000F5F800000948804709480047FEE7FEE727
:10027000FEE7FEE7FEE7FEE7FEE7FEE7FEE7FEE756
:1002800004480549054A064B70470000A1230008B1
:1002900099010008C0030020C0090020C00500200B
:1002A000C005002053EA020C00F069802DE9F04BF4
:1002B0004FF00006002B1FBFB3FA83F503FA05F4D5
:1002C00024FA05F65E4012BF1643B2FA82F502FA2E
:1002D00005F4C5F120051EBF22FA05FC44EA0C0412
:1002E000203556EA044C4FEA144418BF641C4FF002
:1002F00000084FF00009904271EB030C39D300293C
:1003000019BFB1FA81F701FA07F6B0FA80F700FADF
:1003100007F6C7F120071EBF20FA07FC46EA0C06C5
:100320002037B6FBF4FCA7EB0507103F07F01F0BC7
:10033000CBF120062CFA06F60CFA0BFB44BFB346B1
:100340000026202FA4BF5E464FF0000B5BEA060C90
:1003500008BF4FF0010B19EB0B0948EB0608ABFB8C
:10036000027C06FB02CC0BFB03CCC01B71EB0C0127
:10037000C1E70B46024641464846BDE8F08B13B53F
:10038000084318BF4FF0FF300146AFF30080BDE8CF
:100390001C4070474FF0000200B513469446964645
:1003A000203922BFA0E80C50A0E80C50B1F1200188
:1003B000BFF4F7AF090728BFA0E80C5048BF0CC036
:1003C0005DF804EB890028BF40F8042B08BF704794
:1003D00048BF20F8022B11F0804F18BF00F8012B06
:1003E0007047704770477047754600F02BF8AE466F
:1003F00005006946534620F00700854618B020B531
:10040000FFF73EFFBDE820404FF000064FF0000729
:100410004FF000084FF0000BAC46ACE8C009ACE868
:10042000C009ACE8C009ACE8C00921F007018D465D
:10043000704710B50446AFF300802046BDE8104079
:10044000FFF709BF00487047180000200149182035
:10045000ABBEFEE72600020070470000FEE700008A
:10046000704700002DE9F04F83B000F1200200F149
:100470003E4741F20005009207F1FF77C4F2020502
:1004800007224FEAB726A84208BF042200254FF0F2
:1004900000084FF00009042E38BF4FEAB72201923E
:1004A0000AE000BF09F1010908F10208B9F1100FD3
:1004B00005F1040500F0A2800F68012202FA09FE8E
:1004C00017EA0E0AEED0D1F804C003220CF003079D
:1004D0007E1E02FA08F4012E6FEA040B12D884681B
:1004E000CE6804EA0B0406FA08F6344384604468D4
:1004F00024EA0E06CCF3001404FA09F426434660FD
:1005000004E000BF032F01D103271EE0C6688C68FA
:1005100006EA0B0604FA08F42643022FC66014D13B
:100520006FF00302009E02EA590756F807C005F073
:100530001C040F220B69A2402CEA0202A3401A43BA
:10054000F251D1F804C00CF00307026807FA08F36F
:1005500002EA0B021A431CF4403F0260A2D00022C0
:1005600043F644030292C4F202031A6843F60044BD
:1005700042F480421A601A68C4F2010402F4804214
:100580000292029A29F003024FF6084C2244CFF659
:10059000FF7C52F80C3005F00C070F26BE40B34329
:1005A000019E06FA07F73B4342F80C30A2684B68FD
:1005B00042EA0A0743F60C4CDE0258BF22EA0A0759
:1005C000A760C4F2010CDCF800209E0242EA0A0790
:1005D00058BF22EA0A07CCF8007062689E0342EA1C
:1005E0000A0758BF22EA0A0767602268DB0342EA6B
:1005F0000A0758BF22EA0A07276053E703B0BDE89D
:10060000F08F0000002A08BF0904816170470000D4
:1006100040F2BC30C2F2000000687047002804BFFE
:1006200001207047F0B581B0044690F83D0028B92C
:10063000002084F83C00204600F0A2F8242084F832
:100640003D002068016821F001010160016841F46A
:1006500000410160016821F40041016000F036FAB8
:10066000636848F2A16CC0F2010C40F60011C0F2C0
:100670003D0163453CBF48F28041C0F21E01884203
:1006800002D2012001B0F0BD4DF68361C4F21B31EE
:10069000A0FB01122168970CD1F804E04FF4967684
:1006A0002EF03F0545EA92454D60774348F63816EF
:1006B0000D6AC0F24106A7FB067625F03F076345A9
:1006C00038BF960C721C3A430A62CA6948F2A066A7
:1006D0004CF6FF77C0F20106B34222EA07020BD8BC
:1006E00001385B00B0FBF3F001306FF31F300428DA
:1006F00098BF04201BE000BFA768013857B1192735
:100700007B43B0FBF3F001306FF31F3070B100F5A5
:10071000804007E003EB4303B0FBF3F001306FF3DD
:100720001F3018B100F5004001E000BF0120104368
:10073000C8610868D4E9072320F0C00010431843BB
:100740000860886848F2FF3204F10C0790438CCFB0
:1007500018431043A6698860C86820F0FF0038433A
:100760003043C860086840F0010008600020202184
:10077000206484F83D10206384F83E0001B0F0BD91
:10078000B0B586B045F200410068C4F20001002413
:1007900088420594CDE903440294019402D006B046
:1007A000B0BD00BF43F630050094C4F202052868CE
:1007B00040F002002860286800F0020000900098D5
:1007C0004FF4407001901220CDE902040320049000
:1007D0000420059001F5D83001A9FFF743FE0094ED
:1007E000286940F400102861286900F40010009086
:1007F000009806B0B0BD000040F2080040F2BC31E5
:10080000C2F20000C2F2000100780A6810440860D9
:100810007047000080B543F60040C4F20200016852
:1008200041F400710160016841F480610160016878
:1008300041F480710160032000F086F80F2000F081
:1008400005F800F027F8002080BD000070B540F2E8
:100850000806C2F2000640F210013278C2F200012E
:100860004FF47A730968B3FBF2F20446B1FBF2F17C
:10087000084600F061FB0F2C4FF0010508D838B98D
:100880004FF0FF3021460022002500F031F874605F
:10089000284670BD82B0002043F640010190C4F2AA
:1008A00002014A6842F480424A604A6802F4804287
:1008B0000192019A0090086840F080500860086832
:1008C00000F080500090009802B07047002848BFA8
:1008D000704700F01F01012202FA01F11C2202EA16
:1008E000D0004EF20012CEF200028150704700009C
:1008F00010B54EF60C5CCEF2000CDCF80030C3F301
:10090000022E8EF00704042C28BF0424BEF103033A
:100910004FF0FF3E0EFA04F438BF0023A143994084
:100920000EFA03F39A43114300F00F0200F1604303
:100930000901043A03F564436244002848BF02F108
:100940000C03197010BD00004EF60C51CEF20001E0
:100950000A684FF6FF031A4060F30A2242F08060F3
:1009600040F0FD7008607047002804BF0120704708
:100970002DE9F04143F60808C4F202080446D8F80D
:10098000F8030D4600F00700814207D988F8F853B4
:10099000D8F8F80300F00700A84277D12068810753
:1009A00017D5410705D5D8F8001041F4E051C8F833
:1009B0000010010705D5D8F8001041F46041C8F8CF
:1009C0000010D8F80010A26821F0F0011143C8F817
:1009D0000010C00740D1D8F8F80300F007008542A6
:1009E00007D288F8F853D8F8F80300F00700A842B7
:1009F0004CD12068410707D5D8F80010E26821F4EF
:100A0000E0511143C8F80010000708D5D8F80000DD
:100A1000216920F4604040EAC100C8F8000000F0FD
:100A20007DF8D8F8001043F21062C1F30311C0F64C
:100A30000002515C40F2100220FA01F140F20C0079
:100A4000C2F200000068C2F200021160FFF7FEFE71
:100A50000020BDE8F08100BF6068811E022907D236
:100A600058F8081C89015CBF0120BDE8F08111E045
:100A7000012807D158F8081C89035CBF0120BDE894
:100A8000F08107E058F8081C890703D40120BDE86D
:100A9000F08100BFD8F8001021F003010843C8F826
:100AA0000000FFF7B5FD064641F28837D8F8000090
:100AB000616800F00C00B0EB810F8CD0FFF7A8FD4F
:100AC000801BB842F2D90320BDE8F08140F210004B
:100AD00043F60801C2F20000C4F20201006809688E
:100AE00043F22062C1F38221C0F60002515CC8408B
:100AF0007047000040F2100043F60801C2F2000007
:100B0000C4F202010068096843F22062C1F3423175
:100B1000C0F60002515CC8407047000010B543F6B3
:100B20000404C4F202046168C1F3810142F200408E
:100B3000C0F2F400DFE801F002040A0210BD00BFB9
:100B400047F64000C0F27D1010BD00BF206821684C
:100B50002368490247F64001C0F27D1100F03F02D0
:100B6000C3F388105CBF42F20041C0F2F401A1FB64
:100B700000010023FFF796FB21680222C1F3014127
:100B800002EB4101B0FBF1F010BD0000002804BFF2
:100B9000012070472DE9F04182B00446007843F609
:100BA0000006C007C4F202060CD0B06800F00C00CA
:100BB000042840F081803068800303D560680028F5
:100BC00000F06881207880071BD5B06810F00C0F0A
:100BD00009D0B06800F00C00082840F087807068E9
:100BE000400200F183803068800703D5E068012867
:100BF00040F050813068216920F0F80040EAC100DF
:100C000030602078000713D4207840072AD4A569E3
:100C1000002D00F03A81B06800F00C00082840F088
:100C2000A580012D40F00E81012002B0BDE8F081C9
:100C30006069002800F082800020C4F24720012172
:100C4000C0F8801EFFF7E4FC054600BF706F800708
:100C5000DAD4FFF7DDFC401B0228F7D9032002B0ED
:100C6000BDE8F081306C5FEAC0080AD40020019032
:100C7000306C40F080503064306C00F08050019057
:100C8000019847F20007C4F200073868C00547D44E
:100C9000386840F480703860FFF7BAFC054600BF42
:100CA0003868C0053CD4FFF7B3FC401B0228F7D9D5
:100CB000032002B0BDE8F081B06800F00C00082805
:100CC00003D1706840023FF576AF61683068B1F5D6
:100CD000803F07D0B1F5A02F40F09A8040F48020EB
:100CE0003060306840F4803030609AE0E06800287E
:100CF00040F20000C4F247205CD001210160FFF700
:100D000087FC0546306880073FF574AFFFF780FC2D
:100D1000401B0228F6D9032002B0BDE8F08100BFD5
:100D2000A168306F012905D0052955D140F0040094
:100D30003067306F40F00100306756E00020C4F2A9
:100D400047200021C0F8801EFFF762FC054600BF67
:100D5000706F80077FF558AFFFF75AFC401B0228E1
:100D6000F6D9032002B0BDE8F08100BF0027C4F22D
:100D7000472700203866FFF74BFC022D05460DD1B2
:100D80003068800140F18A80FFF742FC401B022856
:100D90004FF00300F4D902B0BDE8F0813068800163
:100DA00073D5FFF735FC401B02284FF00300F5D93F
:100DB000F1E700BF00210160FFF72AFC054600BFF4
:100DC000306880077FF51DAFFFF722FC401B02282B
:100DD0004FF00300F4D9DEE720F001003067306FF8
:100DE000002920F0040030677AD0FFF711FC054697
:100DF00041F28837306F800700F18480FFF708FCEC
:100E0000401BB842F6D9032002B0BDE8F08100BF14
:100E100020F4803030603068002920F48020306079
:100E20007AD0FFF7F5FB0546306880033FF5CAAE80
:100E3000FFF7EEFB401B6428F6D9032002B0BDE8A3
:100E4000F08100BF7068E16900F480028A4221D11C
:100E5000216A00F03F028A421CD147F6C071626AE3
:100E60000140B1EB821F15D1A16A4FF6FF73C90390
:100E7000994300F44032A1F580318A420AD1E16AF7
:100E800000F07060B0EB016F04D1002002B0BDE84B
:100E9000F08100BF012002B0BDE8F08104F11C0523
:100EA0002FCD084340EA8210D9034FF6FF729143D9
:100EB000A1F5803140EA0560084370600120386682
:100EC000FFF7A6FB044600BF30688001DDD4FFF7C2
:100ED0009FFB001B02284FF00300F5D95BE700BF22
:100EE000FFF796FB054641F2883700BF306F800759
:100EF00008D5FFF78DFB401BB8424FF00300F5D932
:100F000049E700BFB8F1000F3FF581AE306C20F02B
:100F1000805030647BE600BFFFF77AFB054600BFD8
:100F2000306880037FF54EAEFFF772FB401B6428EC
:100F30004FF00300F4D92EE7411E0020B0EB116FF3
:100F40001CBF012070474EF21002CEF20002516029
:100F50004EF62351CEF20001F0230B700721906072
:100F600011607047704700007047000090F83C2007
:100F7000012A4FF0020241D010B580F83D200268EE
:100F8000D2F804E0D2F808C00C682EF070032343B6
:100F900040F6FF34C4F20004A242536010DCB2F108
:100FA000804F1ED040F20043C4F200039A4218D092
:100FB00040F60003C4F200039A4212D016E000BFCC
:100FC00040F60043C4F200039A420AD044F2000300
:100FD000C4F201039A4204D00023C4F201039A42EE
:100FE00004D149682CF0800319439160012100224B
:100FF00080F83D1080F83C20BDE810401046704756
:10100000002804BF0120704710B5044690F83D0049
:1010100028B9002084F83C00204600F01FF8022088
:1010200084F83D002068211D01F0D6F9012084F8E4
:10103000460084F83E0084F83F0084F8400084F8BD
:10104000410084F8420084F8430084F8440084F8A6
:10105000450084F83D00002010BD0000006800211C
:10106000C4F20101884218BF704780B582B00020E9
:10107000019043F64400C4F202000168002241F0EE
:10108000010101600068002100F001000190019859
:101090001920FFF72DFC192002B0BDE88040FFF7B2
:1010A00015BC000090F83D1001291CBF01207047BD
:1010B000022180F83D10006840F6FF32C168C4F29A
:1010C0000002904241F00101C1600FDCB0F1804F9D
:1010D0001DD040F20041C4F20001884217D040F612
:1010E0000001C4F20001884211D017E040F600412F
:1010F000C4F2000188420AD044F20001C4F20101A6
:10110000884204D00021C4F20101884206D18168DE
:1011100001F00701062904BF00207047016841F073
:10112000010101600020704790F83C20012A4FF037
:1011300002026CD080B580F83D20D0F800C04FF698
:101140007772DCF8083023EA0202CCF808200B683A
:101150004F2B29DC1F2B45DD202B46D0302B44D0D4
:10116000402B40F0AF80D1F804E0C968DCF82030B3
:10117000DCF8202022F00102CCF82020DCF8182036
:1011800022F0F00242EA011123F00A0242EA0E02C2
:10119000CCF81810CCF82020DCF8081041F04701FA
:1011A00021F0300128E000BF6F2B33DDB3F5005F85
:1011B00074D0B3F5805F21D0702B40F08380D1E9EB
:1011C00001E3C968DCF8082043EA0E0322F47F42F9
:1011D00043EA01211143CCF80810DCF8081041F073
:1011E000770109E00BB1102B6CD1DCF8081021F06D
:1011F0007001194341F00701CCF8081000220121C9
:1012000080F83D10002180F83C10BDE88040104679
:10121000704700BF502B21D0602B53D1D1F804E090
:10122000C968DCF82030DCF8202022F01002CCF86D
:101230002020DCF8182022F4704242EA013123F029
:10124000A00242EA0E12CCF81810CCF82020DCF8EC
:10125000081041F0670121F01001CDE7D1F804E05A
:10126000C968DCF82030DCF8202022F00102CCF83C
:101270002020DCF8182022F0F00242EA011123F0CD
:101280000A0242EA0E02CCF81810CCF82020DCF852
:10129000081041F0570121F02001ADE7D1E901E349
:1012A000C968DCF8082043EA0E0322F47F4243EACF
:1012B00001211143CCF80810DCF8081041F48041FA
:1012C0009AE700BF01229AE7002804BF0120704777
:1012D0002DE9F047044690F83D000D4628B900205E
:1012E00084F83C00204600F049F8022084F83D00D4
:1012F000206844F20702816891438160211D01F05A
:101300006BF820684FF6FF7881688269D0F820C0BA
:10131000D5E9003ED5E9026A43EA0109AB6922EA50
:10132000080246EA03234FF6FC46B343D5E90767B4
:1013300042EA0A0229691A4342EA062242EA0111F4
:101340002CF0AA026B6942EA0E0241EA073142EA36
:101350000312C0F8089081610262012084F84600FF
:1013600084F83E0084F83F0084F8420084F843008B
:1013700084F83D000020BDE8F087000010B586B07D
:10138000006840F60002C4F2000200219042CDE95C
:101390000411CDE90211019122D0B0F1804F51D159
:1013A000002043F630010090C4F202010A691C24B7
:1013B00042F001020A610A6902F001020092009AF9
:1013C00000900868032240F00100086008680121CD
:1013D00000F00100009000980020C4F202001FE01D
:1013E00043F630000091C4F2020002691E2442F06C
:1013F00004020261026902F004020092009A009164
:101400000168C02241F0020101600068022100F081
:101410000200009000980020C4F2020000F58060F5
:101420000192022202920022059101A9CDE9032234
:10143000FFF718F8204600210022FFF759FA20464E
:10144000FFF744FA06B010BD80B590F83E2090F842
:101450003F3090F842E090F843C004290AD0B9B96F
:10146000012A4FF0010208BFBEF1010F34D010462F
:1014700080BD00BF012B4FF0010208BFBCF1010F7E
:10148000F5D1022180F83F1080F8431000681EE07B
:10149000012A4FF0010208BF012BE8D1BEF1010F74
:1014A000E5D1BCF1010FE2D1022280F83E2080F8A4
:1014B0003F2080F8422080F8432091B10068016A03
:1014C00021F001010162016A41F001010162102174
:1014D0006FF0100209E000BF022180F83E1080F892
:1014E0004210006801216FF00102036A1A40026293
:1014F000026A114301620168002241F001010160AA
:10150000104680BD80B590F83E2090F83F3090F8AE
:1015100042E090F843C004290AD0F9B9012A4FF0FB
:10152000010208BFBEF1010F46D0104680BD00BFCA
:10153000012B4FF0010208BFBCF1010FF5D10221D0
:1015400080F83F1080F843100068016A21F0100114
:101550000162016A41F0100101622AE0012A4FF0A4
:10156000010208BF012BE0D1BEF1010FDDD1BCF1BA
:10157000010FDAD1022280F83E2080F83F2080F867
:10158000422080F84320E1B10068016A21F00101A6
:101590000162016A41F001010162016A21F010015A
:1015A0000162016A41F010010162C16841F002016B
:1015B000C16004210FE000BF022180F83E1080F8D6
:1015C00042100068016A21F001010162016A41F0E4
:1015D000010101620221C2681143C1600168002259
:1015E00041F001010160104680BD0000704700001D
:1015F00070B504460068C5680669B10716D515F0D0
:10160000020113D06FF0020101610121217780698D
:10161000800703D02046FFF7E9FF05E0204600F0F1
:10162000BDF8204600F002FA00202077700719D597
:1016300015F0040016D020686FF00401016102214A
:101640002177806910F4407F04D02046FFF7CEFF59
:1016500006E000BF204600F0A1F8204600F0E6F9C1
:1016600000202077300717D515F0080014D0206827
:101670006FF00801016104212177C069800703D060
:101680002046FFF7B3FF05E0204600F087F820462C
:1016900000F0CCF900202077F00619D515F01000E5
:1016A00016D020686FF01001016108212177C06910
:1016B00010F4407F04D02046FFF798FF06E000BFFB
:1016C000204600F06BF8204600F0B0F900202077AB
:1016D000F00718BF15F0010002D1300609D412E05E
:1016E00020686FF001010161204600F019FA300610
:1016F00009D515F0800006D020686FF080010161E7
:101700002046FFF72FFC700609D515F0400006D0E3
:1017100020686FF040010161204600F023FAB00616
:1017200058BF70BD15F0200008D021686FF020026E
:1017300020460A61BDE87040FFF716BC70BD00008E
:1017400080B586B040F200410068C4F2000100227A
:1017500088420592CDE903220292019202D006B09E
:1017600080BD00BF43F630000092C4F2020003685F
:1017700043F001030360006800F00100009000984E
:10178000C02001900220CDE90202CDE9042001F53C
:10179000FE3001A9FEF766FE06B080BD704700006E
:1017A00090F83C30012B04BF022070474FEAB20290
:1017B000032A00F2ED802DE9F043DFE802F003A3F5
:1017C000397300BF036800261D6A1A6AC4F2010655
:1017D00022F001021A621A465C6852F818CFB3422E
:1017E0008E68D1F800E025F0020545EA06050CD127
:1017F000CE68D1E9057824F4407425F00C0526F074
:1018000004063C43354344EA08042CF0730747EAD6
:101810000E075C609F614F6809695F631D629F6985
:1018200047F008079F619F6927F004079F61A4E0C4
:10183000036800261D6A1A6AC4F2010622F4807247
:101840001A621A46D3F804C052F81CEFB3428E68ED
:101850000C6825F4007545EA06250FD1CE68D1E95C
:101860000598360240F2FF4725F44065BE433543F4
:101870002CF4405748EA090647EA061C2EF0730785
:101880002743C3F804C0DF614F680969DF631D6245
:10189000DF6947F00807DF61DF6927F00407DF61D0
:1018A0006BE000BF03680027D3F820C01A6AC4F2B7
:1018B000010722F480521A621A465C6852F81C5FD3
:1018C000D1F800E08E68BB4204D14F6924F4804413
:1018D00044EA87142CF4005747EA063725F4E64615
:1018E00046EA0E265C60DE614E6809691E641F626E
:1018F000DF6947F40067DF61DF6927F48067DF6134
:101900003AE000BF036800261D6A1A6AC4F20106A5
:1019100022F010021A621A46D3F804C052F8184F87
:10192000B3428E68D1F800E025F0200545EA06159F
:101930000FD1CE68D1E905986FF0400725F0C005BA
:1019400007EA061635432CF4406748EA090647EAD9
:10195000860C24F4E64444EA0E27C3F804C09F61D1
:101960004F6809699F631D629F6947F400679F6123
:101970009F6927F480679F6109021368194311600A
:101980000021BDE8F043002280F83C200846704763
:101990000121002280F83C2008467047002804BF3F
:1019A0000120704710B5044690F83D0028B900208A
:1019B00084F83C00204600F01FF8022084F83D0027
:1019C0002068211D00F008FD012084F8460084F8FD
:1019D0003E0084F83F0084F8400084F8410084F819
:1019E000420084F8430084F8440084F8450084F8F9
:1019F0003D00002010BD0000006840F20041C4F22C
:101A00000001884218BF704781B00020009043F663
:101A10004000C4F20200016841F002010160006868
:101A200000F002000090009801B07047704700007D
:101A3000C1B1042908D0082914BF41224022825C88
:101A4000012A05D016E000BF3F22825C012A11D195
:101A50000222082910D0042914BF80F8412080F800
:101A60003F200BE090F83E20012A03D1022280F8AB
:101A70003E2003E00120704780F84020006801F01C
:101A80001F010122036A8A4023EA02010162036AFC
:101A90004421C4F201011A43A1F1440398420262B5
:101AA00016D040F6FF31C4F2000188421ADCB0F1D2
:101AB000804F28D040F20041C4F20001884222D079
:101AC00040F60001C4F2000188421CD022E000BFB1
:101AD0000A6842F400420A6040F6FF31C4F2000195
:101AE0008842E4DD40F60041C4F2000188420AD099
:101AF00044F20001C4F20101884204D00021C4F282
:101B00000101884206D1816801F00701062904BF5E
:101B100000207047016841F001010160002070471A
:101B200000680021C4F20101884218BF704780B5E7
:101B300040F23810C2F2000000F086F840F2C8000F
:101B4000C2F2000000F024FA40F2F810C2F20000E5
:101B500000F07AF840F28810C2F20000BDE8804040
:101B600000F016BA70470000002804BF012070473B
:101B700010B5044690F8410028B9002084F84000D0
:101B8000204600F021F8242084F841002068C16834
:101B900021F40051C160204600F09AFC20680169E0
:101BA00021F490410161416921F02A014161C1683C
:101BB00041F40051C16000202021606484F841108C
:101BC00084F84210606310BD80B586B041F2000118
:101BD0000068C4F20101002288420592CDE9032287
:101BE0000292019202D006B080BD00BF43F63000E1
:101BF0000092C4F20200436943F010034361436959
:101C000003F010030093009B0092036843F001036C
:101C10000360006800F00100009000984FF4C0607D
:101C200001900220CDE902020320049007200590D4
:101C300001F5704001A9FEF715FC06B080BD00005B
:101C4000FEE70000FEE70000B0B5044640694CF234
:101C500099610068CFF6FF71456A608B2583281A69
:101C600011FB00F1A08300EB114081B200B28012A1
:101C700000EBD13001F095F99FED050B53EC102BE3
:101C800001F032FA41EC100B658384ED0E0BB0BD10
:101C900000000000004CDD4070B504460DF1180E48
:101CA0009EE80150DDE90465217000216260C4E90D
:101CB00005E1E16104F12002C4E90E11C4E910114B
:101CC000C4E9121161462381E6602582C4E90B0C48
:101CD00082EC030AFFF7ACFE60693C21BDE870406E
:101CE000FFF7B2BB000000002DE9F0472DED048B9B
:101CF00090ED128B9FED489B55EC186B044653EC0E
:101D0000192B3046294601F014FC40B99FED449B45
:101D1000304653EC192B294601F012FC28B9B0EEDD
:101D2000498AF0EE698A84ED129B2078B0B10128CF
:101D30006ED19FED3D0B56EC185B58EC107B28469E
:101D400031463A46434601F002FCE8B96068218911
:101D50000122FEF757FCE068218A45E09FED320B37
:101D600055EC187B5AEC106B3846294632465346E0
:101D700001F0EDFBE0B9606821890022FEF742FC2A
:101D8000E068218A012228E0606821890022FEF7AC
:101D900039FCD4F80CA0B4F81090284631463A46E5
:101DA000434601F0CDFBE8B95046494601221CE00C
:101DB000D4F80490B4F80880384629463246534691
:101DC00001F0BEFB00284846414614BF0022012214
:101DD000FEF718FCE068218A0022FEF713FC342588
:101DE00006E000BF504649460022FEF70BFC3825AE
:101DF0009FED0D0B94ED121B51EC100BCA0F51EC23
:101E0000110B62F3DF7101F09FF8E16A0968485134
:101E1000BDEC048BBDE8F0870000000000FEA84088
:101E20000000000000FEA8C000000000000000004C
:101E300080ED100B70470000FEE70000000000007E
:101E40002DE9F04F81B02DED068B86B0B0EE408AC3
:101E500004464030F0EE608A0EC04EF200019FED65
:101E6000480B0020C4F26F01DDF85CB06070C4E97B
:101E70001800C4E91A01642057EC105BB0EE429AD6
:101E8000B0EE41AAA06051EC180B2A463B46F0EE9A
:101E9000629AF0EE61AA84F803B001F05FFB0028BB
:101EA00061D15AEC1A6B304651462A463B4601F046
:101EB00055FB002857D158EC199B484641462A4605
:101EC0003B4601F04BFB00284DD116989FED2E0BA1
:101ED000A0700138B0FA80F0400957EC105B207018
:101EE000304651462A463B4684ED048B84ED06ABD2
:101EF00084ED089B84ED0A8B01F0F6F841EC190B98
:101F0000484641462A463B4684ED0C9B00F084FE41
:101F100041EC100BBBF1010F84ED0E0B23D18DEDC5
:101F2000008B9DF8070080F080008DF807009DED84
:101F3000001B84ED0A1B8DED029B9DF80F0080F0C5
:101F400080008DF80F009DED021B84ED0C1B8DEDC4
:101F5000040B9DF8170080F080008DF817009DEDB0
:101F6000040B84ED0E0BFEF753FBA168401A606072
:101F700006B0BDEC068B01B0BDE8F08F00BF00BF1E
:101F800000000000000000009A9999999999B93FC2
:101F90002DE9F04F81B02DED088B84B004464078D8
:101FA00030B1FEF735FBD4E90112411A914207D254
:101FB000002004B0BDEC088B01B0BDE8F08F00BF7D
:101FC0000390206CA16C90ED008B91ED000B56EC12
:101FD000185B51EC100B2A46334601F083F994ED5F
:101FE000160B81460F4653EC102B2846314601F064
:101FF00079F994ED0C0B834694ED149B884651ECD3
:10200000100B4A463B46CDF80890019701F06CF85A
:1020100053EC192B00F04CFD94F800A041EC1A0B86
:10202000BAF1000F84ED14AB15D194ED0A0B0546FF
:1020300053EC102B10460E4619465A46434601F003
:1020400053F802460B462846314601F04BF941EC65
:102050001A0B84ED14AB94ED1A9B55EC1A6B59ECEA
:10206000197B304629463A464B4601F062FAB0EEFB
:1020700049BAF0EE69BA40B994ED18BB304653EC5A
:102080001B2B294601F05CFA28B9B0EE4BAAF0EE02
:102090006BAA84ED14BBBAF1000F0BD094ED0A0BC0
:1020A000DDE9011053EC102B01F01EF841EC1B0B85
:1020B00002E000BF9FED20BB94ED0E0B5A4651ECA1
:1020C000100B434601F010F802460B4651EC1A0B78
:1020D00001F008F902460B4651EC1B0B00F0E8FC3E
:1020E0003A464B4605460E4641EC1A0B01F021FAE2
:1020F00088B994ED18BB284653EC1B2B314601F0F0
:102100001FFAB0EE4A9AF0EE6A9A002804BFB0EEC9
:102110004B9AF0EE6B9A606C80ED009B039884ED17
:10212000168B6060012004B0BDEC088B01B0BDE8E7
:10213000F08F00BF00BF00BF0000000000000000E3
:10214000012937D14278AABBF0B581B02DED028BC1
:10215000D0E9103290ED1A8B92ED000B064680ED1F
:10216000140B93ED001B54EC105B80ED161B53EC2D
:10217000182B28460F46214601F0DBF90246394666
:1021800030461AB180ED148B0FE000BF90ED188B34
:10219000284653EC182B214601F0D2F90246394665
:1021A0003046002A08BF80ED148BBDEC028B01B0D5
:1021B000BDE8F0400139B1FA81F149094170704739
:1021C0002DE9F04F81B02DED048B58EC106B57ECDE
:1021D000115BB0EE419AB0EE408A0446304641466B
:1021E0002A463B46F0EE619AF0EE608A01F0A8F9CB
:1021F00098BB607884ED188B84ED1A9B68B3D4F893
:1022000044B02A469BED000B3B4659EC10AB5046C0
:10221000494601F08EF918B18BED009B0EE000BF2E
:10222000504649463246434601F08AF9B0EE489A94
:102230000028F0EE689A08BF8BED009B94ED140B1C
:1022400094ED1A8B55EC106B53EC182B3046294645
:1022500001F06FF930B184ED148BBDEC048B01B04B
:10226000BDE8F08F94ED188B304653EC182B2946BF
:1022700001F066F9002808BF84ED148BBDEC048BD7
:1022800001B0BDE8F08F00000129B8BF7047F0B57C
:1022900081B0044608460F4600F09AFE0546A06845
:1022A0000E4600F095FE02460B462846314600F0E9
:1022B000B3FC94ED0C0B05460E4651EC100B2A4670
:1022C000334600F011FF94ED0E1B41EC100B51EC66
:1022D000110B2A46334684ED0C0B00F09DFC41ECBB
:1022E000100BA76084ED0E0B01B0BDE8F040704705
:1022F0007047000070470000FEF77EBA70B592B0DC
:1023000006AC20463021FEF745F8002543F6400094
:102310000595CDE90355CDE901550095C4F20200BC
:102320000168022641F080510160006800F0805091
:102330000090009847F200000095C4F20000016888
:1023400041F440410160006800F440400090009872
:102350000120099010200A9008200E904020CDE91D
:102360000F060420119020460696CDE90C65FEF775
:102370000DFC18B172B600BFFEE700BF0F20CDE91B
:1023800001064FF48050CDE9040501A8032103950F
:10239000FEF7EAFA10B172B6FEE700BF12B070BDE8
:1023A0004EF68850CEF20000016841F470010160E1
:1023B0007047000040F28000C2F20000FFF718B939
:1023C00040F29C20C2F20000FFF712B940F22C301C
:1023D000C2F20000FFF70CB9B0B540F2FF7E05680D
:1023E000C4F2000E40F2000C7045C4F2010C1DDD79
:1023F00040F60003C4F20003984220D060451ED08E
:1024000040F60043C4F20003984218D04FF6FF7321
:10241000C4F2000398421DDC704527DCB0F1804F08
:102420003CD040F20043C4F2000335E0B0F1804FED
:1024300005D040F20043C4F200039842E6D14B6855
:1024400025F0700243EA02054FF6FF73C4F2000361
:102450009842E1DD44F2FF33C4F20103984211DCFB
:1024600060451BD044F2000314E000BF40F60003B7
:10247000C4F20003984211D040F60043C4F20003B6
:102480000AE000BF44F60003C4F20103984205D0FD
:1024900044F20043C4F20103984204D1CB6825F40E
:1024A000407243EA02050A688C684B696045C46261
:1024B000826202D10969CCF83010026825F08001EF
:1024C00042F0040219430260012242610160B0BD82
:1024D000B0B50446006804F108030ECB0569194342
:1024E00025F440552A4302616269E3691143C268D9
:1024F000194349F20C639A431143C1604169A269CF
:1025000021F4407141F20043114340F48062C4F26F
:1025100001039A42416103D1FEF7ECFA02E000BFE9
:10252000FEF7D4FAE1694FF69C7563681922C0F68C
:10253000FF75B1F5004FA0FB02011FD15A00DB0F60
:10254000FDF7B0FE48F21F51C5F2EB11A0FB0123CD
:102550005A0905F1805302FB0300322303EBC0004C
:10256000A0FB01014FF4F87000EA111000EB02101B
:10257000C1F34211084421688860B0BD9A009B0FE6
:10258000FDF790FE48F21F51C5F2EB11A0FB0123AD
:102590005A0902FB0500322303EB0010A0FB0101E6
:1025A000F02000EA511000EB0210C1F3431108447F
:1025B00021688860B0BD0000FEE700000000000058
:1025C00092B040F20049C4F20209FEF723F9FFF786
:1025D00095FE002743F630000B97CDE90977CDE94A
:1025E00007771097C4F20200016809F5806541F091
:1025F000040101600168002201F0040110911099AA
:10260000109701684FF4005441F001010160016826
:1026100001F00101109110991097016841F0020139
:10262000016000684FF4005100F002001090109813
:102630002846FDF7E7FF48464FF4704100224FF46B
:102640007048FDF7DFFF07AE0794012428463146A6
:10265000CDE908470A97FDF705FF48463146CDE921
:102660000784CDE90977FDF7FDFE40F24820A9F582
:10267000D831C2F2000048F2A0624FF48043C0F2A9
:10268000010280E88600C0E90373C0E90577C0E96C
:102690000777FDF7C3FF18B172B600BFFEE700BFB2
:1026A00040F29C20C2F200004FF08041C0E90017C8
:1026B00003214FF6FF72CDE9071707A9CDE910777F
:1026C000C0E9027207618761CDE90947CDE90B775F
:1026D000CDE90D470F97FEF7F7FD18B172B600BFB1
:1026E000FEE700BF40F29C25C2F2000510A9284673
:1026F000FEF73CFC10B172B6FEE700BF40F2E420EA
:102700000021A9F50032C2F200001F2340F2E73792
:10271000CDE91011CDE90C11CDE90A11C0E9002372
:10272000C0E9021701618161FFF738F910B172B693
:10273000FEE700BF40F2E420C2F2000010A9FEF75D
:1027400015FC18B172B600BFFEE700BF602007900D
:102750000020CDE908000B9040F2E420C2F2000016
:1027600007A90022FFF71CF810B172B6FEE700BF00
:1027700040F2E420C2F2000007A90422FFF710F89B
:1027800010B172B6FEE700BF40F2E426C2F20006C6
:102790003046FEF7D5FF40F22C300021A9F5FE327D
:1027A000C2F20000C0E9002103224FF6FF73CDE919
:1027B00007210122CDE91011C0E9021301618161F5
:1027C000CDE90921CDE90B11CDE90D210F9107A923
:1027D000FEF77AFD10B172B6FEE700BF40F22C376B
:1027E000C2F2000710A93846FEF7C0FB10B172B65E
:1027F000FEE700BF40F27430A9F57441C2F2000058
:1028000000240C234FF4E13280E81600C0E90344B1
:10281000C0E90534C461FFF7A7F918B172B600BF6B
:10282000FEE700BF40F2780BC2F2000BA9F582313F
:10283000584640F8081F3F2140F2CF720A94CDE974
:102840000844CDE91044C0E90114C0E90324C0E9FB
:102850000544FEF7D5FB08B172B6FEE74FF4805091
:102860000BF10808079007A94046FEF75DFC08B188
:1028700072B6FEE710A94046FEF778FB10B172B6BB
:10288000FEE700BF4046FEF70DFC28463C21FEF760
:1028900039FE38463C21FEF735FE30460021002443
:1028A000FFF7C6F8304604214FF00408FFF7C0F8E0
:1028B000192000210022FEF71BF81920FEF706F868
:1028C000049540F238159FED789A9FED78AA4FF461
:1028D0000050C2F20005B7EE008ACDE9009028460C
:1028E00000214A464FF48053B0EE480AF0EE490A00
:1028F000B0EE4A1A02960394FFF7CEF9CDE90268CA
:1029000040F2F8164FF40040C2F20006CDE9009004
:10291000304601214A464FF48043B0EE480AF0EEBB
:10292000490AB0EE4A1A0497FFF7B6F940F20000E0
:10293000C2F20000016801F1400001F12007069099
:1029400091CF01F1380901F1480A00F0B9FD41ECDD
:10295000180B204600F0B4FD41EC190B384600F08E
:10296000AFFD40F2C80841EC120BC2F20008069B12
:10297000B0EE480AB0EE491A404649465246F0EEDB
:10298000680AF0EE691A00270124CDE90047FFF735
:1029900057FA40460121FFF7D3FB40460221FFF7DB
:1029A00073FC9FED3B8B9FED3C9BB0EE480AB0EE75
:1029B000491A4046F0EE680AF0EE691AFFF700FC8B
:1029C00040F20000C2F20000416801F1400001F154
:1029D0002007069091CF01F1380901F1480A00F073
:1029E0006FFD41EC1A0B204600F06AFD41EC1B0B19
:1029F000384600F065FD40F2881841EC120BC2F237
:102A00000008069BB0EE4A0AB0EE4B1A4046494613
:102A10005246F0EE6A0AF0EE6B1A00270124CDE967
:102A20000047FFF70DFA40460121FFF789FB4046BA
:102A30000221FFF729FCB0EE480AB0EE491A4046E1
:102A4000F0EE680AF0EE691AFFF7BAFB9FED148BFF
:102A50002846B0EE480AF0EE680AFFF7E9F9B0EE52
:102A6000480A3046F0EE680AFFF7E2F9B5F91800B7
:102A700000F097FA41EC100B8BED000B2846FFF7A6
:102A800033F93046FFF730F9F8E700BF00BF00BF69
:102A90000000000000FEA8C00000000000FEA840EA
:102AA0000000000000407F409A99993FA69B443B5C
:102AB00010B591EA030F48BF83F0004300F11A8478
:102AC000841A71EB030C05D2121943EB0C03001BA3
:102AD00061EB0C014FEA1154A4EB135CDFF81CE12D
:102AE0001EEA430F18BF9EEA445F00F0748021EA9B
:102AF000045123EA0E0343F48013DCF1200E32D399
:102B000022FA0CFE10EB0E0023FA0CFE41EB0E0134
:102B1000CCF1200E03FA0EFE10EB0E00CCF1200ECD
:102B200051F10001B1F5801F32D201EB045112FACC
:102B30000EF2BDE8104058BF7047401C38BF5FEA36
:102B4000420218BF7047002814BF20F0010041F175
:102B500000014FEA410313F5001F38BF7047A1F190
:102B6000C04100F0B9BB012A43EB0302ACF1200CD9
:102B7000DCF11F0E32BF4FF0000E23FA0CF310EB06
:102B8000030041EB0451B4EB115FD0D0A1EB045131
:102B900001F58011490801EB04515FEA30000ED3C2
:102BA00050F1000038BF12FA0EFE08D1BDE8104007
:102BB000C9E7401C38BF5FEA4202CAD1C3E7BDE89B
:102BC00010404FEA410313F5001F38BF7047A1F1D1
:102BD000C04100F081BB9EEA445F08D011EA5E0F5D
:102BE000BDE8104004BF01F0004100207047BDE87F
:102BF000104070B500F022FB64FBBE3E0000E0FF19
:102C0000491058BFC1F140415B1058BFC3F1404368
:102C10008B42EFF3008070472DE9C04130B4DFF8FC
:102C2000A8C23CEA111418BF3CEA131400F0F0806B
:102C30001CEA111481EA030544EAD57418BF1CEAA2
:102C4000131500F0CB80A4EB050404F17F7404F5A8
:102C500000344FF0004545EAC12145EAC32341EA6B
:102C6000505143EA52534FEAC0204FEAC2229942E0
:102C700008BF904200F0A0804FEA13650FF248169B
:102C8000765D4FEA134506FB05F7C7F1807706FB33
:102C900007F74FEAD737A7FB03687642A7FB06CEB4
:102CA000C8F5803838BFA8F1010807FB08E6A6FB85
:102CB000028C4FF0000EE6FB03CED8F100086FEA5D
:102CC0000C0C5CF1000C6FEA0E0E4EF1004EA6FBF0
:102CD0000C584FF00007E6FB0E87A1FB08C6A0FBCF
:102CE00007CE16EB0E064FF0000545F10005E1FB9F
:102CF000076515F1E04E7EBFA4F580345FEA460615
:102D00006D4116F1800745F100054FEA172747EAA4
:102D100005674FEA15254FEA0666A6F1DE46B6F1CD
:102D2000805F20D9384605EBC47124F0010C01EB1B
:102D30000C11BCF1FE6F02D8F0BCBDE8008124424A
:102D40005CBF01F5801E9EEAC47F02D4F0BCBDE8E2
:102D50000081244200F13980A1F1C041F0BCBDE8FE
:102D6000004100F0B9BA4FEAD02040EA41504FEAA2
:102D7000D1214FEAD22242EA43524FEAD323A7FBA2
:102D8000028607FB036605FB02661EEA0E0F58BFAC
:102D9000A6EB0056B6EB00564FEA520E4EEAC37E43
:102DA00018EB0E0E56EB530EBCD518EB02085E4125
:102DB0007F1C55F10005B5E74FF480154FF0000773
:102DC0004FF000064FF00008ACE701F1C04101F000
:102DD00000414FF00000F0BCBDE800810CEA131583
:102DE00011EA0C1F00D00CE013EA0C1F00F0258044
:102DF0004FF0000081EA030101F00041F0BCBDE8A2
:102E00000081F0BCBDE8004181EA030100F064BA32
:102E1000F0BCBDE8004170B500F010FA097EFC3E40
:102E200000F007B84FF0000081EA030101F0004113
:102E3000704781EA030100F04FBAF0BCBDE80041E1
:102E400022494FF000007047FFFDFBF9F7F5F4F25F
:102E5000F0EEEDEBE9E8E6E4E3E1E0DEDDDBDAD835
:102E6000D7D5D4D3D1D0CFCDCCCBCAC8C7C6C5C493
:102E7000C2C1C0BFBEBDBCBBBAB9B8B7B6B5B4B3AA
:102E8000B2B1B0AFAEADACABAAA9A8A8A7A6A5A495
:102E9000A3A3A2A1A09F9F9E9D9C9C9B9A99999859
:102EA0009797969595949393929191908F8F8E8EFC
:102EB0008D8C8C8B8B8A8989888887878685858489
:102EC00084838382828181800000FF070000F87F75
:102ED00051EA030C17D41CF5801F58BFBCF5801FA6
:102EE00000F10680994218BF704708BF90427047B2
:102EF00007D711F5801F58BF13F5801F19D49942C9
:102F00007047894270471CF5801F08D5BCF5801FAB
:102F1000F7D58B4218BF704708BF824270474FF405
:102F2000001C1CEB410F38BF1CEB430F01D28B423E
:102F3000704770B500F082F9922449004FF00051BB
:102F40004FF08053FFF75CBE4FEA1153A3F5806347
:102F5000D3F11E03A8BFD3F1200C08DB4FF00042D1
:102F600042EAC12252EA505232FA03F07047094253
:102F70000BD4102BC4BF0020704703F5787CBCF144
:102F8000FF3F05D04FF0FF3070474FF00000704713
:102F900070B500F053F900BF4992248000207047BB
:102FA000F0E710F0004248BF4042B0FA80F310FA58
:102FB00003F10AD0C3F11D0303F5806302EB035252
:102FC0004FEA415002EBD12170474FF000007047AB
:102FD000B0FA80F310FA03F10AD0C3F11D0303F530
:102FE00080634FEA03524FEA415002EBD121704710
:102FF0004FF000007047000051EA030C17D41CF595
:10300000801F58BFBCF5801F00F10680994218BF91
:10301000704708BF9042704707D711F5801F58BF0F
:1030200013F5801F19D499427047894270471CF5E7
:10303000801F08D5BCF5801FF7D58B4218BF70479D
:1030400008BF824270474FF4001C1CEB410F38BF91
:103050001CEB430F01D28B42704770B500F0EEF8C5
:10306000922449004FF080514FF00053FFF7C8BD44
:1030700051EA030C17D41CF5801F58BFBCF5801F04
:1030800000F10680994218BF704708BF9042704710
:1030900007D711F5801F58BF13F5801F19D4994227
:1030A0007047894270471CF5801F08D5BCF5801F0A
:1030B000F7D58B4218BF704708BF824270474FF464
:1030C000001C1CEB410F38BF1CEB430F01D28B429D
:1030D000704770B500F0B2F8922449004FF00051EB
:1030E0004FF08053FFF78CBD70B5DFF848C11CEA84
:1030F000111E1EBF1CEA13159EEA0C0F95EA0C0F59
:1031000000F06F8081EA03044EEAD47EAE4421EAE7
:103110004C1123EA4C1341F4801143F48013AEF1B7
:103120007F7EA1FB024CA0FB0365361955EB0C0515
:10313000A1FB034C4CF10003A0FB021C16EB0C0698
:10314000654153F10003094218BF46F0010613F42C
:10315000007F0BD14FEA03314FEA053041EA1551A8
:1031600040EA165034036FF003020AE04FEAC3212D
:103170004FEAC52041EA555140EA5650F4026FF03B
:10318000020202EB2E4201EB025585EACE710AD013
:103190005FEA440C18BF24F0004450F1000041F1F4
:1031A000000120EAD47040F2FE7C624500D270BD7E
:1031B000A84214BF4FF080444FF04044002E08BF97
:1031C0000024BEF1806FA8BFA1F1C041BDE87040EE
:1031D00080F2828001F1C04101F000414FF0000017
:1031E00070470CEA13159EEA0C0F18BF95EA0C0FF6
:1031F00006D081EA030E4FF000000EF0004170BDD2
:1032000000F01CF88900013E00F007B800F009B892
:103210004FEA430C5FEA5C5C08D081EA030100F0EE
:103220005BB84FEA410C5FEA5C5CF6D102494FF0B3
:10323000000070470000FF070000F87F0EF1020E4B
:103240002EF0030E5EF8046B364205D4012A43EBE0
:10325000030515F5001F12D8012841EB010C1CF5E0
:10326000001F0CD80ED14FEAD17C0CEB4C0C0CF1AA
:10327000020C15F5001F08BF4CEBD37C04E04FF0A7
:10328000080C01E04FEAD37C0CEB4C0526FA05F65E
:1032900006F00706B6F1040C06D20EEB860CBDE86C
:1032A00070404CF0010C6047DFE80CF0090B0202A3
:1032B0004FF00041A1F500214FF0000070BD19460C
:1032C0001046012851EB010418BFD4F5001484BF47
:1032D000002001F0004170BD0808A0F500114FEA80
:1032E0003101704710B591EA030F48BF83F00043E6
:1032F0003FF5E6AB841A71EB030C07D28CF0004C5F
:10330000121943EB0C03001B61EB0C014FEA115443
:10331000A4EB135CDFF8A4E11EEA430F18BF9EEA9A
:10332000445F00F0B48021EA045123EA6E03524264
:10333000C3EB6E0338BF5B1EDCF1200E25D322FAEF
:103340000CFE10EB0E0043FA0CFE41EB0E01CCF12B
:10335000200E03FA0EFE10EB0E00CCF1200E51F100
:10336000000129D401EB045112FA0EF2BDE810401D
:1033700058BF7047401C1CBFB2F1004F7047002877
:103380000CBF491C20F00100704712EB020E43EB0A
:10339000030218BF4FF0010E4EEA4202ACF1200CBE
:1033A000DCF11E0E56D943FA0CFE10EB0E00CCF1E8
:1033B0001E0E51F1FF31D5D50EF1010E12FA0EFE9F
:1033C000404141EB010101EB445C5FEA5C5C10D9D8
:1033D00001EB045110EBDE7038BFBEF1004FBDE8C9
:1033E000104018BF704700280CBF491C20F0010096
:1033F000704734D24FEAD42C24F4006411F5001144
:103400001BD0B1FA81F20B3AA41AA41ED2F1200308
:10341000914030FA03F31943904001EBCC7101EB7A
:103420000451002CBDE81040A8BF704701F1C04115
:1034300001F000414FF000007047B0FA80F310FA3D
:1034400003F102D1BDE810407047E41A173C48056B
:10345000C90AE2E701EB0451BDE81040704749108A
:103460004FEA300001EB0451BDE8104002E04FF09C
:10347000000170474A0008BF0042F8D0B2F5001FB3
:1034800028BF704701F000414FF0000070479EEAEE
:10349000445F07D011EA5E0FBDE8104004BF002171
:1034A00000207047BDE8104070B5FFF7C7FE00BFB1
:1034B00040DFF63E104683F0004170470000E0FF19
:1034C00043004FEAD30C4FEA3C0C43401FBF400778
:1034D0000CF1605113F0FE4F70471CF0006F03D1E8
:1034E0000CF00041002070470CF0004343EA50709C
:1034F00040EACC0010B500F038F800BF00000092A0
:103500004FEA0001FFF7E8BE4FF00041A1F50021AE
:103510004FF00000704710B5FFF7DAFC0CBF012038
:10352000002010BD10B5FFF7D3FC14BF0120002010
:1035300010BD10B5FFF760FD8CBF0120002010BD4D
:1035400010B5FFF759FD2CBF0120002010BD10B5AC
:10355000FFF78EFD94BF0120002010BD10B5FFF7CE
:1035600087FD34BF0120002010BD0EF1020E2EF0A9
:10357000030E5EF8044B244204D44FEA4102B2F138
:103580007F4F11D84FEA4003B3F17F4F0CD80ED1D3
:103590004FEAD07C0CEB4C0C0CF1020CB2F17F4FDB
:1035A00008BF4CEBD17C04E04FF0080C01E04FEA7F
:1035B000D17C0CEB4C0324FA03F404F00704B4F1BF
:1035C000040C06D20EEB840CBDE810404CF0010C4C
:1035D0006047DFE80CF0070802024FF00040A0F55A
:1035E000800010BD0846420018BFD2F1807288BF2B
:1035F00000F0004010BDF1EE100A4FF6FF71C0F26E
:10360000C03120EA010040F04070E1EE100A70473E
:103610000000000000000000010203040607080982
:1036200000000000010203044836000800000020EA
:1036300018000000FC010008603600081800002097
:10364000A80900001C02000838010020F801002031
:1036500001000000100000000024F4000000000041
:040000050800019955
:00000001FF
